:020000040000FA
:1000000007284E010F1E012842019A0008004001F6
:1000100000309A0040019F3094007E015C30CE0099
:100020007D011730CB007E010D30A60051016230FA
:100030008D00510100308F005101003091005101BD
:1000400006309300510100309000510100309200C1
:10005000510100309400420108309F00420190306D
:100060009D00420124309E004201CF309B0042019E
:1000700000309C0048300120653001206C300120A8
:100080006C3001206F3001202030012077300120BA
:100090006F300120723001206C300120643001206B
:0E00A000213001200D3001200A3001203A28C5
:0200AE0000341C
:0200B00000341A
:020000040001F9
:02000E00E83ECA
:02001000FF3FB0
:020012009F3F0E
:02001400FF3FAC
:02001600FF3FAA
:00000001FF
