:020000040000FA
:08000000803102288731FD2F39
:100F12004E010C0E890C013908004F019601970110
:100F2200980199019A019B010800623051018D00DC
:100F32008F01910102309300900192019401080007
:100F420049304B019F0079309D009C014E018C126B
:100F520080304B019E00080087318E278731873110
:100F6200D62787318731962787318731A127873165
:100F720008008731AD278731873189278731003AC9
:100F82000319C42FC52FBD2F031040019A1D03144E
:100F92000318CC2FCF2F40019A15D12F40019A115F
:100FA2004E018C12BD2F8031022840019801990117
:100FB2009A01DF309200FF309300D7309400DC308A
:100FC2007E01CE00FF30C300DF30B800E501C4016E
:100FD200B901CF01BA01C501D001DF30BB00FF303A
:100FE200C600DF30D100FF30BC00FF30C700DF3069
:0E0FF200D2000830E800080040018731BA2F15
:020000040001F9
:0A000E00E83FFF3F9F3FFF3FFF3F29
:00000001FF
