:020000040000FA
:08000000803102288731FD2F39
:100F3000F100710887319E2787310800F0004E01CB
:100F40000F1EA32FA42F9F2F700842019A000800A4
:100F5000623051018D008F019101063093009001A4
:100F600092019401083042019F0090309D0024308E
:100F70009E00CF309B009C01080040019A019F30E9
:100F800094005C307E01CE0017307D01CB000D3027
:100F90007E01A6008731A82787310030F200883013
:100FA000F3008731D7278731CD2F80310228F70111
:100FB000EC2F7308F5007208F400770874078400BA
:100FC00075080318750A850000088731982787314E
:100FD0000130F4007408F7077308F5007208F40094
:100FE00077087407840075080318750A85001200D5
:100FF000031DFB2FFC2FD92F080040018731BD2F87
:101000006834613472347234793420340D340A34E3
:021010000034AA
:020000040001F9
:0A000E00E83FFF3F9F3FFF3FFF3F29
:00000001FF
