:020000040000FA
:08000000803102288731FD2F39
:100EA200F300730841019F004201911711131114BD
:100EB20011185C2F5D2F592F41011E08F1001D08EA
:100EC200F0000800FF30F0050330F10546010E1E68
:100ED2006B2F6C2F712F0630F035F10D890B6D2FB2
:100EE20071088D0070088C000800873191278731C6
:100EF2008731D32787318731AF2787311430873144
:100F0200512787317108F5007008F4007508F10067
:100F12007408F0008731632787317F2F80310228E0
:100F220040019A01DE3094001C307E01CE00DF3099
:100F3200D100DF30D2000930A00017307D019C00C3
:100F42000130450190008F0191017C308D008C01B0
:100F52004E019010C03045018E00080040019A01F8
:100F6200DE3094001C307E01CE00DF30D100DF3055
:100F7200D2000930A000623051018D008F01910131
:100F8200063093009001920194018C3046018E004C
:100F920001308D00F3308C0044011E08FC39013809
:100FA2009E00080040019A01DE3094001C307E0150
:100FB200CE00DF30D100DF30D20016307D01C30019
:100FC20041018C018D018E018F01920193019801E3
:100FD2009A019F01A03042018C000F308D008E01DA
:100FE2008F0190019201930194019501960197015D
:0E0FF200980194309100080040018731762F5D
:020000040001F9
:0A000E00E83FFF3F9F3FFF3FFF3F29
:00000001FF
