:020000040000FA
:10000000803102288731D62F640080010131890BAD
:100010000528003468304001EE006E084101D3002D
:1000200040016708DF006608DE00D330EE006E088E
:10003000E00000308131182180310800F300F20126
:10004000731C2328242828287008F1007108F2075F
:100050000310F00D0310F30C7308031D3028312832
:10006000202872080800F9000F307905F4000A30E2
:10007000F5007508F0007908F6000430F636890BB3
:100080003E2876080F3980311E2080317407F70032
:100090007708F800780808007408803AF500803086
:1000A0007502031D5528013073020318582859287A
:1000B00065287309F5007409F600F50A0319F60AB4
:1000C0007508F3007608F40065280800F400740849
:1000D000F2007208F30070280130F2007208F40791
:1000E00074088600013087000108031D78287928EC
:1000F0006C2873087402F000F101F01BF103080092
:100100000A30F0000030F1007A08F3007908F200BC
:1001100082312C2280317008FB007B08FC000A3001
:10012000F0000030F1007A08F3007908F200823123
:10013000D82280317108FA007008F9007C080800A4
:10014000083042019F0090309D0024309E001930FD
:100150009B009C010030F0000030F1008F31C0277F
:1001600080310030F0000030F1008F31C62780313F
:100170000030F0000030F1008F31BA2780314101AA
:10018000D00108004001A300A101A201DA28200843
:10019000FB00FC017B08F2007C08F3007A08FD00FC
:1001A0007D08F4008131ED21803101304001A1074B
:1001B0000030A23D21082307FB007B0886000130A8
:1001C00087000108FC007C08A0002008031DE92826
:1001D000EA28C72808004001980199019A01DF30F8
:1001E0009200FF3093009F3094005C307E01CE007F
:1001F000FF30C300DF30B800E501C401B901CF0111
:10020000BA01C501D001DF30BB00FF30C600DF30CE
:10021000D100FF30BC00FF30C700DF30D200083013
:10022000E80017307D01CB000D307E01A6000800EC
:100230004001E3005F08E5005E08E4004101BC0105
:10024000BD0136296430E1006108CE006008E2009B
:100250006208CF0063088331A023813140014E083A
:100260004101BC0740014F084101BD3D4001640808
:100270008400650885001200031D3F2940292229BA
:1002800041013D084001DF0041013C084001DE0022
:10029000080058018C168C138F31B4278131003A35
:1002A000031D532954296629203058019000063037
:1002B00091000230920023309300123094001830E5
:1002C0009500133096004001EF01EF0AFC30580111
:1002D0008C058E138F010630970002309800233072
:1002E000990012309A0018309B0013309C008E1732
:1002F00080308E008D018C178C1208008F31F02712
:100300008131D4308331372381314101EA01EB015E
:100310000C30D8000030D9003230D6000030D70081
:10032000D401D50134304001E6008830E7004101B6
:1003300059084001E900410158084001E800410125
:1003400057084001EB00410156084001EA00410115
:1003500055084001ED00410154084001EC00803196
:100360000A20813192298031022840012108FA00B7
:100370002008F900803180208131803133208131A3
:10038000FD007D084001A4000A30F0000030F100BB
:100390002108F3002008F2008231D822813171084F
:1003A0004001A3007008A2002308FA002208F90007
:1003B000803180208131803133208131FD007D0802
:1003C0004001A50025080F39FD000330FD35FF3E33
:1003D000031DE6297D352404080074080319F1295A
:1003E000F229F7297408031DF629F729FC29720858
:1003F0008F31CC2781312B2A7408033E8600870178
:10040000160001040319052A062A232A7408033E4C
:1004100086008701403FF500413FF600740A8600E0
:100420008701403FF700413FF8007808803AF90023
:100430007608803A7902031D1F2A7508770203188F
:10044000222A232A2B2A740A860087010130810779
:1004500041310318810A0800F601F31F302A312ABE
:10046000382AF209F309F20A0319F30AF601F60A27
:10047000F11F3B2A3C2A412AF009F109F00A03192D
:10048000F10A700871040319462A472A702AF501F7
:10049000F50A532A0130F035F10D890B4B2A013052
:1004A000F4007408F507F11F562A572A4A2A7108E2
:1004B0007302031D5D2A70087202031C602A612A00
:1004C000652A7008F2027108F33B0130F136F00C36
:1004D000890B662A0130F502031D6F2A702A572AFC
:1004E00076080319742A752A7A2AF209F309F20A9E
:1004F0000319F30A7308F1007208F00008004001C4
:10050000AC004101421C852A862A8F2A40012C0812
:10051000A7002708FA0024088031C2208231400158
:10052000A61B932A942A992A2608AB002508AA001C
:100530009B2AAA01AB01A801A901AF2A2030F20031
:100540000030F30040012C08A7002708F400813197
:10055000ED21823101304001A8070030A93D290872
:10056000803AA7002B08803A2702031DB92A2A08DF
:100570002802031CBC2ABD2A9E2A41014218C12A16
:10058000C22ACB2A40012C08A7002708FA00240819
:100590008031C220823140012408803166208231BE
:1005A00040012A087007A4002B08713DA50008002F
:1005B000F601F11FDC2ADD2AE42AF009F109F00A2C
:1005C0000319F10AF601F60AF31FE72AE82AF12ACD
:1005D000F209F309F20A0319F30A0130F40074086E
:1005E000F606F701F801700871040319F82AF92AD0
:1005F000282BF501F50A052B0130F035F10D890B9B
:10060000FD2A0130F4007408F507F11F082B092BAF
:10061000FC2A0130F735F80D890B0A2B710873029B
:10062000031D142B70087202031C172B182B1D2B93
:100630007008F2027108F33B77140130F136F00CC8
:10064000890B1E2B0130F502031D272B282B092BAC
:10065000760803192C2B2D2B322BF709F809F70AF2
:100660000319F80A7808F1007708F0000800400143
:10067000A60058018C168C13400126080A3E8600FD
:100680008701403FA000413FA1008131B521833166
:100690005801900040012608083E86008701403F2F
:1006A000A000413FA1008131B52183315801910063
:1006B000400126080C3E86008701403FA000413FD4
:1006C000A1008131B52183315801920040012608F3
:1006D000063E86008701403FA000413FA1008131D6
:1006E000B52183315801930040012608043E86005D
:1006F0008701403FA000413FA1008131B5218331F6
:100700005801940040012608023E86008701403FC0
:10071000A000413FA1008131B521833158019500EE
:100720004001260886008701403FA000413FA1000C
:100730008131B5218331580196008C178C12080045
:100740004001DD004E0886008701403FD000413F58
:10075000D10050088400510885001200253A031D7D
:10076000B22BB32B572C4E0886008701013081072E
:1007700041310318810A4101BE01BF01C201C30119
:10078000FF30C000FF30C10040014E0886008701E5
:10079000403FD000413FD1005008840051088500FF
:1007A0001200643A0319D52BD62BE72B4E0886008E
:1007B0008701403FD000413FD100500884005108DC
:1007C00085001200693A031DE62BE72B222C4E0808
:1007D000860087010130810741310318810A4F08E3
:1007E0008600870101088400850102308107003FEF
:1007F000D000013FD1005008D5005108D600890D26
:10080000893B8909D700D800D900DA00DB00DC0079
:100810005508B0005608B1005708B2005808B30098
:100820005908B4005A08B5005B08B6005C08B70068
:100830005D0886316626833140013108CF003008DB
:10084000CE007A2C4E0886008701403FD000413F01
:10085000D10050088400510885001200253A031D7C
:10086000322C332C4C2C4E08860087010130810736
:1008700041310318810A2530F2000030F3005D0891
:10088000D0005008F4008131ED2183310130400166
:10089000CE000030CF007A2C4E0886008701013050
:1008A000810741310318810ACE01CF017A2C4E080D
:1008B00086008701403FD000413FD10050088400AE
:1008C000510885000008D200D3015208F2005308F5
:1008D000F3005D08D4005408F4008131ED21833128
:1008E00040014E088600870101308107413103181D
:1008F000810A462C0800F20128308600003087006B
:10090000473FF000F01F852C862CA72C4001A8093A
:10091000A909AA09AB09AC09AD09AE09AF09A80A32
:10092000031DA52CA90A031DA52CAA0A031DA52C8D
:10093000AB0A031DA52CAC0A031DA52CAD0A031D93
:10094000A52CAE0A031DA52CAF0AF201F20A203035
:10095000860000308700473FF000F01FB02CB12C1C
:10096000D02C4001A009A109A209A309A409A50945
:10097000A609A709A00A031DD02CA10A031DD02C8B
:10098000A20A031DD02CA30A031DD02CA40A031D08
:10099000D02CA50A031DD02CA60A031DD02CA70A13
:1009A00040012008210422042304240425042604F1
:1009B00027040319DC2CDD2C302DF101F10AEC2C7D
:1009C000A035A10DA20DA30DA40DA50DA60DA70D7B
:1009D0000130F0007008F107A71FEF2CF02CE02C7D
:1009E00027082F02031D0E2D26082E02031D0E2D93
:1009F00025082D02031D0E2D24082C02031D0E2D8B
:100A000023082B02031D0E2D22082A02031D0E2D82
:100A100021082902031D0E2D20082802031C112D78
:100A2000122D222D2008A8022108A93B2208AA3B4A
:100A30002308AB3B2408AC3B2508AD3B2608AE3B66
:100A40002708AF3BA736A60CA50CA40CA30CA20C40
:100A5000A10CA00C0130F102031D2F2D302DF02C24
:100A600072080319342D352D532DA809A909AA0997
:100A7000AB09AC09AD09AE09AF09A80A031D532D96
:100A8000A90A031D532DAA0A031D532DAB0A031DEA
:100A9000532DAC0A031D532DAD0A031D532DAE0A71
:100AA000031D532DAF0A40012808A0002908A1000A
:100AB0002A08A2002B08A3002C08A4002D08A500DA
:100AC0002E08A6002F08A7000800F201203086009B
:100AD00000308700473FF000F01F6F2D702D912DE3
:100AE0004001A009A109A209A309A409A509A60911
:100AF000A709A00A031D8F2DA10A031D8F2DA20A8D
:100B0000031D8F2DA30A031D8F2DA40A031D8F2DF6
:100B1000A50A031D8F2DA60A031D8F2DA70AF2011A
:100B2000F20A2830860000308700473FF000F01FAF
:100B30009A2D9B2DBE2D4001A809A909AA09AB0930
:100B4000AC09AD09AE09AF09A80A031DBA2DA90A5F
:100B5000031DBA2DAA0A031DBA2DAB0A031DBA2D17
:100B6000AC0A031DBA2DAD0A031DBA2DAE0A031D32
:100B7000BA2DAF0A0130F0007008F206733086001B
:100B8000003087000830F00000301E00F00BC52D4B
:100B900040012008210422042304240425042604FF
:100BA00027040319D42DD52D312EF101F10AE42D9E
:100BB000A035A10DA20DA30DA40DA50DA60DA70D89
:100BC0000130F0007008F107A71FE72DE82DD82DA0
:100BD000F335F40DF50DF60DF70DF80DF90DFA0DD1
:100BE00027082F02031D0E2E26082E02031D0E2E8F
:100BF00025082D02031D0E2E24082C02031D0E2E87
:100C000023082B02031D0E2E22082A02031D0E2E7E
:100C100021082902031D0E2E20082802031C112E74
:100C2000122E232E2008A8022108A93B2208AA3B45
:100C30002308AB3B2408AC3B2508AD3B2608AE3B64
:100C40002708AF3B7314A736A60CA50CA40CA30C65
:100C5000A20CA10CA00C0130F102031D302E312E8C
:100C6000E82D72080319352E362E542EF309F40997
:100C7000F509F609F709F809F909FA09F30A031D54
:100C8000542EF40A031D542EF50A031D542EF60AA1
:100C9000031D542EF70A031D542EF80A031D542E6B
:100CA000F90A031D542EFA0A73084001A0007408C3
:100CB000A1007508A2007608A3007708A4007808B0
:100CC000A5007908A6007A08A70008004001BF0027
:100CD0003008C4003108C5003208C6003308C70018
:100CE0003408C8003508C9003608CA003708CB00E8
:100CF0004430860000308700473FB800B81B812E83
:100D0000832E0130842E00304001B900BA01390829
:100D1000C2003A08C300420843040319902E912EE2
:100D2000AF2EC409C509C609C709C809C909CA0936
:100D3000CB09C40A031DAF2EC50A031DAF2EC60A78
:100D4000031DAF2EC70A031DAF2EC80A031DAF2E09
:100D5000C90A031DAF2ECA0A031DAF2ECB0A4101DB
:100D6000C11BB32EB42EB82EFD30C205FF30C30513
:100D70004108803A4001B80080303802031DC32E7C
:100D80000130410140020318C62EC72ECD2E01307E
:100D90004001BD000030BE00D52E41014108400198
:100DA000BE00410140084001BD0041013F08400133
:100DB000C10041013E084001C00042084304031D38
:100DC000E22EE32EE82E4101421DE72EE82EED2E05
:100DD000FF304001C007FF30C13D1F304001CC0053
:100DE0000030CD004201BF015E2FFF304001CC0733
:100DF000FF30CD3D0A30A000A101A201A301A40152
:100E0000A501A601A7014408A8004508A9004608B5
:100E1000AA004708AB004808AC004908AD004A08E2
:100E2000AE004B08AF0084317B248631400121089D
:100E3000F4002008F30080314C2086317308303EE6
:100E40004001B8004C08203E860001308700380879
:100E50008100FF30BD07FF30BE3DFF30C007FF30CF
:100E6000C13D0A30A000A101A201A301A401A50176
:100E7000A601A7014408A8004508A9004608AA0041
:100E80004708AB004808AC004908AD004A08AE006E
:100E90004B08AF0085316525863140012008C4002C
:100EA0002108C5002208C6002308C7002408C8007E
:100EB0002508C9002608CA002708CB0040014D08B4
:100EC000803AB80080303802031D682F01304C0290
:100ED000031C6B2F6C2F992F4001440845044604D6
:100EE0004704480449044A044B04031D782F792F12
:100EF000F52E3E08803AB80080303802031D822F5C
:100F000001303D020318852F862FF52E4001410840
:100F1000803AB80080303802031D902F0130400223
:100F2000031C932F942F992F4101C218982F992FAA
:100F3000F52E400142084304031D9F2FA02FA52F2B
:100F40004101421DA42FA52FC22FFF304001CC0725
:100F5000FF30CD3D42084304031DAF2FB02FB52F06
:100F60002B30BB000030BC00B92F2D30BB0000304F
:100F7000BC003B08B8004C08203E860001308700CA
:100F80003808810040014C08203EB8003808A40011
:100F90004108A6004008A5003F0882317F22863123
:100FA00040012508B1002408B000080041018F313C
:100FB000B7278731EC008F31B8278731ED008F31AB
:100FC000B9278731EE004001EF01A03084000030E6
:100FD0008500313080310420873120308400013099
:100FE00085004230803104208731A03084000130F8
:100FF00085003830803104208731400181317E29DD
:1010000000340034003400348034DE3428340034BA
:101010008034C8344D3400340034A734763400347E
:10102000003434349E34003480341234C7340034F5
:1010300080349F34EE34003400347E34173401346D
:1010400080345C34403401348034E9346734013412
:101050000034C8349034013400345534B834013489
:1010600047344D34543400342034743469346D348E
:1010700065342034693473342034253464343A348C
:10108000253464343A342534643420340D340A343D
:0210900000342A
:101F680040016F08080020340034A0347108410192
:101F7800C5007008C400080071084101C900700854
:101F8800C800080071084101C7007008C6000800B1
:101F9800F10071088F31DA278F3108004F0196015F
:101FA8009701980199019A019B010800F0004E01E0
:101FB8000F1EDF2FE02FDB2F700842019A00080068
:101FC800623051018D008F0108309100023093007A
:101FD80090019201940108008F31D2278F3180310E
:101FE800EB208F318F31E4278F31813149218F31B7
:101FF8008031A0208F3108001F341E341F341E3456
:102008001F341F341E341F341E341F341F341D3434
:020000040001F9
:0A000E00E83FFF3F9F3FFF3FFF3F29
:00000001FF
