:020000040000FA
:08000000803102288731F12F45
:100E160040018E15080040018D150800FE001200E5
:100E26001E00FE0B122F00344F0196019701980108
:100E360099019A019B01080087311727873187316D
:100E4600A127873187312927873108006230510170
:100E56008D008F019101063093009001920194015B
:100E66000800B8340034B9340034BA340034BB3422
:100E76000034BC340034BD340034BE340034BF34D6
:100E86000034F100710840018C000E138E130E120F
:100E96004E30F000EB30890B4E2FF00B4E2F00003A
:100EA60040010E160630F0003030890B582FF00B3B
:100EB600582F003240010E120800F100710840015F
:100EC6008C000E138E170E124E30F000EB30890B8D
:100ED6006A2FF00B6A2F000040010E160630F00054
:100EE6003030890B742FF00B742F003240010E1234
:100EF600080087310B2787313F30873144278731F8
:100F060087310E2787313F308731442787311A30A2
:100F1600F200F830890B8D2FF20B8D2F00328731BE
:100F26000B278731C03087314427873187310E2719
:100F36008731C03087314427873108004001980146
:100F460099019A01DF309200FF309300DF30940060
:100F5600DC307E01CE00FF30C300DF30B800E50193
:100F6600C401B901CF01BA01C501D001DF30BB0010
:100F7600FF30C600DF30D100FF30BC00FF30C700B5
:100F8600DF30D2000830E800080087311F2787319C
:100F9600400194019201930187317C2787317F308C
:100FA60087316027873102308731602787310C30DF
:100FB60087316027873102308731602787317F305C
:100FC6008731602787310030873160278731FF30CE
:100FD600873160278731EE2F803102283430840034
:100FE600873085002030860000308700103087313A
:0A0FF6001127873140018731C82F11
:020000040001F9
:0A000E00E83FFF3F9F3FFF3FFF3F29
:00000001FF
