:020000040000FA
:100000000128400114137E01CE157E010D30A6009B
:10001000510162308D00510100308F0051010030DC
:1000200091005101023093005101003090005101C4
:1000300000309200510100309400420108309F00CE
:10004000420190309D00420124309E00420119304F
:100050009B00420100309C0048304520653045201F
:100060006C3045206C3045206F30452020304520D5
:10007000773045206F304520723045206C30452068
:1000800064304520213045202C2842019A004E0141
:040090000F1E4728D0
:040094000034003400
:020000040001F9
:02000E00E83ECA
:02001000FF3FB0
:020012009F3F0E
:02001400FF3FAC
:02001600FF3FAA
:00000001FF
