:020000040000FA
:04000000803117280C
:040004000034003490
:08000800F1000308F2003D3095
:1000100024024001031D5B20A4010F28A40A4E0105
:0E0020008C12720840018300F10E710E09006F
:02002E0040018F
:10003000941114137E01CE157E010D30A6005101DE
:1000400062308D00510100308F005101003091006D
:1000500051010230930051010030900051010030F5
:100060009200510100309400420108309F0042018B
:1000700090309D00420124309E00420119309B00C7
:10008000420100309C004B0140309F004B01F93091
:100090009D004B0100309C004B0180309E004001D0
:1000A0008B170B174E0196164E018C12A40158287F
:1000B00020306220582840019A1D60289A110800BB
:0E00C0009A15080042019A004E010F1E642896
:020000040001F9
:02000E00E83ECA
:02001000FF3FB0
:020012009F3F0E
:02001400FF3FAC
:02001600FF3FAA
:00000001FF
