:020000040000FA
:08000000803102288731FD2F39
:100EEC004F0196019701980199019A019B01080005
:100EFC00623051018D008F019101063093009001F9
:100F0C009201940108008C3046018E0001308D0056
:100F1C00F3308C0044011E08FC3901389E00080097
:100F2C000130450190008F019101F9308D008C0149
:100F3C004E019010B03045018E00080087317627A5
:100F4C0087318731D427873187317E2787318731A5
:100F5C008927873187319627873108008731A42765
:100F6C00873140011A140330F1008A30F0005630FA
:100F7C00890BBE2FF00BBE2FF10BBE2F40011A10A8
:100F8C000330F1008A30F0005630890BCB2FF00B78
:100F9C00CB2FF10BCB2FB72F8031022840019801BA
:100FAC0099019A01DF309200FF309300DE309400FB
:100FBC00DC307E01CE00FF30C300DF30B800E5012D
:100FCC00C401B901CF01BA01C501D001DF30BB00AA
:100FDC00FF30C600DF30D100FF30BC00FF30C7004F
:100FEC00DF30D2000830E8000930A00008004001D2
:040FFC008731B42F56
:020000040001F9
:0A000E00E83FFF3F9F3FFF3FFF3F29
:00000001FF
