:020000040000FA
:04000000803114280F
:100008007E1480314E01961E0A280B2812288C1E59
:100018000E280F2812288631B62680317E10090056
:10002800803116284001EE01EF01A0308400003035
:10003800850039308631F62680317E1040018431C2
:10004800572C4001BF003008C4003108C5003208F1
:10005800C6003308C7003408C8003508C900360888
:10006800CA003708CB004430860000308700473F7D
:10007800B800B81B4028422801304328003040010E
:10008800B900BA013908C2003A08C300420843045B
:1000980003194F2850286E28C409C509C609C7097D
:1000A800C809C909CA09CB09C40A031D6E28C50AAB
:1000B800031D6E28C60A031D6E28C70A031D6E2875
:1000C800C80A031D6E28C90A031D6E28CA0A031D23
:1000D8006E28CB0A4101AD1B722873287828FD30A1
:1000E8004001EE05FF30EF0541012D08803A40013F
:1000F800B80080303802031D8428013041012C02E9
:100108000318872888288E2801304001BD00003058
:10011800BE00962841012D084001BE0041012C086F
:100128004001BD0041012B084001C10041012A08DE
:100138004001C00042084304031DA328A428A8289E
:100148006E1DA728A828AC28FF30C007FF30C13D86
:100158001F30CC000030CD004101D8011B29FF30F1
:100168004001CC07FF30CD3D0A30A000A101A2011B
:10017800A301A401A501A601A7014408A8004508F8
:10018800A9004608AA004708AB004808AC0049087F
:10019800AD004A08AE004B08AF0082319022803192
:1001A80040012108F4002008F30086313C26803104
:1001B8007308303E4001B8004C08B93E86008701FC
:1001C80038088100FF30BD07FF30BE3DFF30C00753
:1001D800FF30C13D0A30A000A101A201A301A40182
:1001E800A501A601A7014408A8004508A9004608DA
:1001F800AA004708AB004808AC004908AD004A0807
:10020800AE004B08AF0081318F21803140012008BA
:10021800C4002108C5002208C6002308C700240816
:10022800C8002508C9002608CA002708CB004001D5
:100238004D08803AB80080303802031D2529013066
:100248004C02031C28292929562940014408450441
:1002580046044704480449044A044B04031D35294D
:100268003629B3283E08803AB80080303802031D8A
:100278003F2901303D02031842294329B328400190
:100288004108803AB80080303802031D4D290130FA
:100298004002031C5029512956294001EE185529BE
:1002A8005629B328400142084304031D5C295D29EF
:1002B80061296E1D602961297C29FF30CC07FF3038
:1002C800CD3D42084304031D6A296B2970292B3050
:1002D800BB000030BC0074292D30BB000030BC00CE
:1002E8003B08B8004C08B93E8600870138088100F1
:1002F8004C08B93EB8003808A4004108A6004008D8
:10030800A5003F088431D024803140012508B10080
:100318002408B0000800F201203086000030870071
:10032800473FF000F01F99299A29BB294001A009ED
:10033800A109A209A309A409A509A609A709A00A50
:10034800031DB929A10A031DB929A20A031DB92948
:10035800A30A031DB929A40A031DB929A50A031D67
:10036800B929A60A031DB929A70AF201F20A2830F9
:10037800860000308700473FF000F01FC429C529D8
:10038800E8294001A809A909AA09AB09AC09AD09DE
:10039800AE09AF09A80A031DE429A90A031DE42927
:1003A800AA0A031DE429AB0A031DE429AC0A031DAC
:1003B800E429AD0A031DE429AE0A031DE429AF0AA6
:1003C8000130F0007008F2067330860000308700B4
:1003D8000830F00000301E00F00BEF294001200823
:1003E80021042204230424042504260427040319D1
:1003F800FE29FF295B2AF101F10A0E2AA035A10D79
:10040800A20DA30DA40DA50DA60DA70D0130F0009A
:100418007008F107A71F112A122A022AF335F40DD2
:10042800F50DF60DF70DF80DF90DFA0D27082F0249
:10043800031D382A26082E02031D382A25082D02F6
:10044800031D382A24082C02031D382A23082B02EE
:10045800031D382A22082A02031D382A21082902E6
:10046800031D382A20082802031C3B2A3C2A4D2A4F
:100478002008A8022108A93B2208AA3B2308AB3B75
:100488002408AC3B2508AD3B2608AE3B2708AF3B0C
:100498007314A736A60CA50CA40CA30CA20CA10CD3
:1004A800A00C0130F102031D5A2A5B2A122A720895
:1004B80003195F2A602A7E2AF309F409F509F60967
:1004C800F709F809F909FA09F30A031D7E2AF40A5B
:1004D800031D7E2AF50A031D7E2AF60A031D7E2ABD
:1004E800F70A031D7E2AF80A031D7E2AF90A031D4E
:1004F8007E2AFA0A73084001A0007408A100750852
:10050800A2007608A3007708A4007808A500790857
:10051800A6007A08A7000800F201283086000030FB
:100528008700473FF000F01F9A2A9B2ABC2A400107
:10053800A809A909AA09AB09AC09AD09AE09AF090F
:10054800A80A031DBA2AA90A031DBA2AAA0A031D62
:10055800BA2AAB0A031DBA2AAC0A031DBA2AAD0A85
:10056800031DBA2AAE0A031DBA2AAF0AF201F20A1B
:100578002030860000308700473FF000F01FC52A72
:10058800C62AE52A4001A009A109A209A309A409CC
:10059800A509A609A709A00A031DE52AA10A031DA2
:1005A800E52AA20A031DE52AA30A031DE52AA40ACF
:1005B800031DE52AA50A031DE52AA60A031DE52A47
:1005C800A70A400120082104220423042404250446
:1005D800260427040319F12AF22A452BF101F10A0E
:1005E800012BA035A10DA20DA30DA40DA50DA60DDF
:1005F800A70D0130F0007008F107A71F042B052B89
:10060800F52A27082F02031D232B26082E02031D77
:10061800232B25082D02031D232B24082C02031D40
:10062800232B23082B02031D232B22082A02031D38
:10063800232B21082902031D232B20082802031C31
:10064800262B272B372B2008A8022108A93B220894
:10065800AA3B2308AB3B2408AC3B2508AD3B260846
:10066800AE3B2708AF3BA736A60CA50CA40CA30CE1
:10067800A20CA10CA00C0130F102031D442B452B48
:10068800052B72080319492B4A2B682BA809A909BD
:10069800AA09AB09AC09AD09AE09AF09A80A031D3F
:1006A800682BA90A031D682BAA0A031D682BAB0A2D
:1006B800031D682BAC0A031D682BAD0A031D682BAC
:1006C800AE0A031D682BAF0A40012808A0002908BC
:1006D800A1002A08A2002B08A3002C08A4002D08BA
:1006E800A5002E08A6002F08A70008004001DD007D
:1006F8004E0886008701403FD000413FD100500896
:100708008400510885001200253A031D8C2B8D2B7F
:10071800332C4E08860087010130810741310318C8
:10072800810A4101AA01AB014001EE01EF01FF304E
:100738004101AC00FF30AD0040014E088600870142
:10074800403FD000413FD100500884005108850047
:100758001200643A0319B12BB22BC32B4E08860042
:100768008701403FD000413FD10050088400510824
:1007780085001200693A031DC22BC32BFE2B4E08BD
:10078800860087010130810741310318810A4F082B
:100798008600870101088400850102308107003F37
:1007A800D000013FD1005008D5005108D600890D6E
:1007B800893B8909D700D800D900DA00DB00DC00C2
:1007C8005508B0005608B1005708B2005808B300E1
:1007D8005908B4005A08B5005B08B6005C08B700B1
:1007E8005D0880312520833140013108CF00300871
:1007F800CE00562C4E0886008701403FD000413F6E
:10080800D10050088400510885001200253A031DC4
:100818000E2C0F2C282C4E088600870101308107EA
:1008280041310318810A2530F2000030F3005D08D9
:10083800D0005008F400853126258331013040016D
:10084800CE000030CF00562C4E08860087010130BC
:10085800810741310318810ACE01CF01562C4E0879
:1008680086008701403FD000413FD10050088400F6
:10087800510885000008D200D3015208F20053083D
:10088800F3005D08D4005408F4008531262583312F
:1008980040014E0886008701013081074131031865
:1008A800810A222C08008631A6268431E430F00023
:1008B8000630F1008731022784318B170B1740016E
:1008C8000E0E01394101D900DA015908E5005A082C
:1008D800E60037086606031D732C360865060319FB
:1008E800762C772C7A2C8531962584314101300875
:1008F80031040319802C812CC82C8631DA268431E6
:1009080073084101E4007208E3007108E20070080E
:10091800E1003008D9003108DA000030DA1BFF3076
:10092800DB00DC0020086102DD002108623BDE00FC
:100938002208633BDF002308643BE0005C08600298
:10094800031DB02C5B085F02031DB02C5A085E0221
:10095800031DB02C59085D02031CB32CB42CC82C01
:100968006408A3006308A2006208A1006108A0004F
:10097800031040019A1D03140318C32CC62C400110
:100988009A15C82C40019A1141016608B7006508FC
:10099800B600632C803114284001AC006E1CD52CA5
:1009A800D62CDE2C2C08A7002708FA00240885314D
:1009B800F22584314001A61BE22CE32CE82C260802
:1009C800AB002508AA00EA2CAA01AB01A801A901DD
:1009D800FE2C2030F2000030F30040012C08A70064
:1009E8002708F40085312625843101304001A80705
:1009F8000030A93D2908803AA7002B08803A270231
:100A0800031D082D2A082802031C0B2D0C2DED2C84
:100A180040016E18102D112D192D2C08A70027083C
:100A2800FA0024088531F2258431400124088631F2
:100A38005626843140012A087007A4002B08713D0E
:100A4800A5000800740803192A2D2B2D302D7408D1
:100A5800031D2F2D302D352D72088631FC2685314A
:100A6800642D7408033E86008701160001040319EB
:100A78003E2D3F2D5C2D7408033E86008701403FC4
:100A8800F500413FF600740A86008701403FF700F1
:100A9800413FF8007808803AF9007608803A7902F0
:100AA800031D582D7508770203185B2D5C2D642DE6
:100AB800740A860087010130810741310318810AD1
:100AC80008004001E3005F08E5005E08E40041011A
:100AD800A801A901832D6430E1006108CE006008F7
:100AE800E2006208CF00630883317A238531400130
:100AF8004E084101A80740014F084101A93D4001A6
:100B080064088400650885001200031D8C2D8D2D56
:100B18006F2D410129084001DF00410128084001EB
:100B2800DE000800410165086604031D9C2D9D2D0B
:100B3800A62D8631DA26853171084101B500700885
:100B4800B400C42D8631DA26853171084101B3001D
:100B58007008B20034083202B0003508333BB100E7
:100B680095304001E6008630E70041013108400138
:100B7800E900410130084001E800863183268531CB
:100B880008004001980199019A01DF309200FF3076
:100B98009300973094004C307E01CE00FF30C300A4
:100BA800DF30B800E501C401B901CF01BA01C501C0
:100BB800D001DF30BB00FF30C600DF30D100FF308E
:100BC800BC00FF30C700DF30D2000830E800173023
:100BD8007D01CB000D307E01A60008004001A30076
:100BE800A101A2010A2E2008FB00FC017B08F200EB
:100BF8007C08F3007A08FD007D08F400853126257D
:100C0800853101304001A1070030A23D21082307AA
:100C1800FB007B08860087010108FC007C08A00017
:100C28002008031D182E192EF72D08000830420140
:100C38009F0090309D0024309E0019309B009C013D
:100C48000030F0000030F10087310E278631003087
:100C5800F0000030F1008731082786310030F000BD
:100C68000030F1008731142786314101B8010800AE
:100C78007408803AF50080307502031D452E013056
:100C880073020318482E492E552E7309F50074096E
:100C9800F600F50A0319F60A7508F3007608F40059
:100CA800552E0800F4007408F2007208F300602E54
:100CB8000130F2007208F407740886008701010801
:100CC800031D672E682E5C2E73087402F000F10174
:100CD800F01BF103080040304B019F00F9309D00E4
:100CE8009C014E018C1296161A30F0000730F10064
:100CF80087310227863180304B019E00080068301A
:100D08004001EA006A08ED006708DF006608DE00B7
:100D18006D30EA006A08E0000030853165258631CB
:100D2800080068346F346C346434743469346D3456
:100D3800653420343A3420342534643420340D3476
:100D48000A3400348631EE2686318531C525863150
:100D58008631C526863186316F26863186311A2638
:100D6800863108004E018C1241016D086E0403198A
:100D7800BE2EBF2EC42E6E088A006D080A0086316A
:100D88000800623051018D008F01910102309300FB
:100D98009001920194010800F0004E010F1ED52E1B
:100DA800D62ED12E700842019A000800410127086A
:100DB800F3002608F2002508F1002408F0000800D6
:100DC80001304101A4070030A53D0030A63D0030A8
:100DD800A73D08004F0196019701980199019A01D2
:100DE8009B010800640080010131890BF72E003453
:100DF800F10071088631D02686310800710841015A
:100E0800EE007008ED00080071084101EA00700862
:100E1800E900080071084101EC007008EB000800C7
:0E0E280071084101E8007008E70008000800AA
:020000040001F9
:0A000E00E83FFF3F9F3FFF3FFF3F29
:00000001FF
