:020000040000FA
:100000000000022840018C3094007E01DC30CE00DC
:100010007E010930A000510162308D005101003095
:100020008F005101003091005101063093005101C1
:1000300000309000510100309200510100309400D6
:10004000400145018E010E1446018E018C01B00164
:100050002C2033202828B001B00A30083B20303053
:100060003002031D2C28B00330083B200030300242
:10007000031D33282B2840018C3094008B1346013C
:1000800001308D004601F3308C0046018C308E002B
:1000900045017C308D004E019A014E018F014401D3
:0600A0001E148E1708007B
:0400A60000340034EE
:020000040001F9
:02000E00E83ECA
:02001000FF3FB0
:020012009F3F0E
:02001400FF3FAC
:02001600FF3FAA
:00000001FF
