:020000040000FA
:08000000803102288731FD2F39
:100F2C004F0196019701980199019A019B010800C4
:100F3C008731962787318731D62787318731A82784
:100F4C0087310800623051018D008F019101023010
:100F5C009300900192019401080087319E278731FC
:100F6C0040010E1ABA2FBB2FB62F2130F00076306D
:100F7C00890BBE2FF00BBE2F003240010E1AC72F6B
:100F8C00C82FB62F8E15A330F0005530890BCC2FFF
:100F9C00F00BCC2F000040018E11B62F80310228AF
:100FAC004001980199019A01DF309200FF309300C3
:100FBC00D7309400CC307E01CE00FF30C300DF3040
:100FCC00B800E501C401B901CF01BA01C501D001D6
:100FDC00DF30BB00FF30C600DF30D100FF30BC007B
:100FEC00FF30C700DF30D2000830E80008004001B5
:040FFC008731B32F57
:020000040001F9
:0A000E00E83FFF3F9F3FFF3FFF3F29
:00000001FF
