:020000040000FA
:08000000803102288731FD2F39
:100E58004F0196019701980199019A019B01080099
:100E6800623051018D008F0191010630930090018D
:100E78009201940108008C3046018E0001308D00EB
:100E8800F3308C0044011E08FC3901389E0008002C
:100E98000130450190008F0191017C308D008C015B
:100EA8004E019010C03045018E00080087312C2774
:100EB800873187317D2787318731342787318731DB
:100EC8003F27873187314C2787310800FF30F005ED
:100ED8000330F10546010E1E722F732F782F06304E
:100EE800F035F10D890B742F71088D0070088C0096
:100EF80008004001980199019A01DF309200FF3003
:100F08009300DE309400DC307E01CE00FF30C30059
:100F1800DF30B800E501C401B901CF01BA01C5014C
:100F2800D001DF30BB00FF30C600DF30D100FF301A
:100F3800BC00FF30C700DF30D2000830E8000930BD
:100F4800A000080087315A278731F4017408F2009D
:100F5800F3017208F0007308F10087316A278731BE
:100F68001A30F200F830890BB72FF20BB72F003286
:100F78000130F2007208F407740A031DC42FC52F4C
:100F8800AA2F1530F3004B30F200BE30890BCA2F60
:100F9800F20BCA2FF30BCA2F0032FF30F20072088F
:100FA800F4007408F200F3017208F0007308F1000D
:100FB80087316A2787311A30F200F830890BE22F1F
:100FC800F20BE22F00320130F4027408031DED2FFA
:100FD800EE2FD52F1530F3004B30F200BE30890BC1
:100FE800F32FF20BF32FF30BF32F0032A92F8031DD
:080FF800022840018731A62FF9
:020000040001F9
:0A000E00E83FFF3F9F3FFF3FFF3F29
:00000001FF
