:020000040000FA
:1000000080311428FF34FF347E1480314E01961E57
:100010000A280B2812288C1E0E280F2812289F3120
:10002000A32780317E1009008031162842018031DB
:1000300002208031EA00803103208031EB00410151
:10004000EA01EB01EC01ED01EE012030840001300A
:10005000850035308731F9278031A03084000130A8
:10006000850020308731F92780317E1040018B31A7
:10007000442B400149088039CE004E08D300493551
:10008000CE004E08D900C81F4628472848285914D2
:10009000590803194C284D285C28590A031D51287A
:1000A00052285A280030C9000030C8000030C7006C
:1000B0000030C600C81764280030C9000030C800EE
:1000C0000030C7000030C6004D088039CE004E0811
:1000D000D3064D35CE004E08D400CC1F70287128B1
:1000E0007228541454080319762877288628540A4D
:1000F000031D7B287C2884280030CD000030CC00F4
:100100000030CB000030CA00CC178E280030CD0064
:100110000030CC000030CB000030CA005408031976
:100120009228932898285908031D97289828A128D1
:100130000030C9000030C8000030C7000030C600E1
:100140008F2A4608CE004E08F0004C0890319420CB
:10015000803171084001DF007008DE005E08CE00CB
:10016000CF01D001D1015108D8005008D7004F0865
:10017000D6004E08D5005F08CE00CF01D001D101D6
:100180005108DD005008DC004F08DB004E08DA00A3
:100190004708CE004E08F0004B0890319420803183
:1001A00071084001DF007008DE005E08CE00CF015C
:1001B000D001D1014E08D5074F08D63D5008D73D94
:1001C0005108D83D5F08CE00CF01D001D1014E08C3
:1001D000DA074F08DB3D5008DC3D5108DD3D48089B
:1001E000CE004E08F0004A0890319420803171080A
:1001F0004001DF007008DE005E08CE00CF01D001B4
:10020000D1014E08D5074F08D63D5008D73D5108BB
:10021000D83D5F08CE00CF01D001D1014E08DA07EA
:100220004F08DB3D5008DC3D5108DD3D0830D53539
:10023000D60DD70DD80D890B17294708CE004E08CB
:10024000F0004A0890319420803171084001DF00AD
:100250007008DE005E08D5075F08D63D0030D73D48
:10026000D83D4608CE004E08F0004B08903194204F
:10027000803171084001DF007008DE005E08D5079C
:100280005F08D63D0030D73DD83D0830D535D60D76
:10029000D70DD80D890B46294608CE004E08F00030
:1002A0004A0890319420803171084001DF007008C5
:1002B000DE005E08D5075F08D63D0030D73DD83D4B
:1002C0004708CE004E08F0004C0890319420803151
:1002D00071084001DF007008DE005E08DA075F0881
:1002E000DB3D0030DC3DDD3D4808CE004E08F0002F
:1002F0004B0890319420803171084001DF00700874
:10030000DE005E08DA075F08DB3D0030DC3DDD3DE6
:100310004808CE004E08F0004C08903194208031FF
:1003200071084001DF007008DE005E08CE005F0843
:10033000CF00D001D1010830CE35CF0DD00DD10D79
:10034000890B9C294E08DA074F08DB3D5008DC3D3D
:100350005108DD3D5508CE005608CF005708D000A3
:100360005808D1001830D136D00CCF0CCE0C890BE8
:10037000B3294E08DA074F08DB3D5008DC3D510831
:10038000DD3D0830D535D60DD70DD80D890BC229E6
:1003900059085407CE00CF01CF0D4E08823EDE0033
:1003A000FF304F3DDF00EB290130DA35DB0DDC0D8E
:1003B000DD0D890BD529D81FDE29DF29E0295A1444
:1003C0000130D535D60DD70DD80D890BE129FF3079
:1003D000DE07FF30DF3DDC1FEE29EF29D429D401F1
:1003E000D81FF329F429102AFF305505CE00FF301D
:1003F0005605CF00FF305705D0007F305805D1009B
:10040000510850044F044E040319072A082A0B2AE6
:10041000D401D40A102A5A1C0E2A0F2A102A082A9C
:1004200054080319142A152A3D2A0130DA0700302E
:10043000DB3D0030DC3D0030DD3D5D1C202A212A03
:100440003D2A5A08CE005B08CF005C08D0005D084A
:10045000D1000130D200D137D00CCF0CCE0CD20B52
:100460002B2A5108DD005008DC004F08DB004E0845
:10047000DA000130DE070030DF3D5F08803ACE0051
:1004800080304E02031D462AFF305E02031C492ABB
:100490004A2A542A7F304001DD008030DC000030E1
:1004A000DB000030DA00832A40015F08803ACE008A
:1004B00080304E02031D5E2A01305E020318612A5D
:1004C000622A6D2A00304001DD000030DC0000307F
:1004D000DB000030DA00D301832A40015E08CE0041
:1004E0004E08D900FF30DA05FF30DB057F30DC0530
:1004F0000030DD05591C7D2A7E2A7F2ADC175936FB
:10050000CE004E08DD005308CE004E08DD045D0825
:10051000C9005C08C8005B08C7005A08C60008008C
:10052000410130088039B5003508BD003035B500CF
:100530003508BF00AF1F9D2A9E2A9F2A3F143F08FF
:100540000319A32AA42AB42A3F0A031DA82AA92A08
:10055000B12A0030B0000030AF000030AE000030F3
:10056000AD00AF17B001BC2A0030B0000030AF00C2
:100570000030AE000030AD0034088039B5003508D9
:10058000BE003E083D060319C62AC72AC82A3D17E1
:100590003435B5003508BE00B31FCF2AD02AD12A82
:1005A0003E143E080319D52AD62AE62A3E0A031D20
:1005B000DA2ADB2AE32A0030B4000030B30000302E
:1005C000B2000030B100B317B401EE2A0030B4001D
:1005D0000030B3000030B2000030B1003F083E02EE
:1005E0000318F32AF42A382B3D1FF72AF82AFC2A8D
:1005F0008030B5003508BD063F08B5003508C0009D
:100600003E08B5003508BF004008B5003508BE00FB
:100610002D08B5003508C0003108B5003508AD001B
:100620004008B5003508B1002E08B5003508C000F7
:100630003208B5003508AE004008B5003508B200F4
:100640002F08B5003508C0003308B5003508AF00E5
:100650004008B5003508B3003008B5003508C000C3
:100660003408B5003508B0004008B5003508B400BE
:10067000C0013E08B500B6013608B8003F08350293
:10068000B700031CB8033808803AB900803039023B
:10069000031D4C2B1A303702031C4F2B502B882B79
:1006A000410130082F042E042D04031D582B5A2B12
:1006B00001305B2B0030B5003508C0000030B000C1
:1006C0000030AF000030AE000030AD003E08B50095
:1006D0003508BF008F2B401C6E2B6F2B752B4036BF
:1006E0000138B5003508C000772B0310C00C2D1C55
:1006F0007A2B7B2B7C2BC0170130B500B037AF0CA9
:10070000AE0CAD0CB50B7E2B0130B5003508BF0724
:1007100041013E083F02031C8E2B8F2B6B2B3D1B90
:10072000922B932BCB2B3F08031D972B982BA12BA0
:100730000030B0000030AF000030AE000030AD003F
:10074000C72C3108AD073208AE3D3308AF3D340841
:10075000B03D301CAC2BAD2B572C401CB02BB12B1B
:10076000B72B40360138B5003508C000B92B03104F
:10077000C00C2D1CBC2BBD2BBE2BC0170130B500EF
:10078000B037AF0CAE0CAD0CB50BC02B0130B500C3
:100790003508BF07572C3008803AB5003408803A36
:1007A0003502031DDD2B33082F02031DDD2B32081C
:1007B0002E02031DDD2B31082D020318E02BE12B47
:1007C000192CFF30B500FF30B600FF30B700FF3006
:1007D000B8002D083102B9002E08323BBA002F08AC
:1007E000333BBB003008343BBC003908B5073A083E
:1007F000B63D3B08B73D3C08B83D3808B000370867
:10080000AF003608AE003508AD008030B5003508C1
:10081000BD06C009C00A4008031D0F2C102C212C56
:100820000130AD070030AE3D0030AF3D0030B03D8F
:10083000212C3108AD023208AE3B3308AF3B3408FF
:10084000B03B30082F042E042D04031D282C292C26
:10085000532C4008031D2D2C2E2C532C0030B0009F
:100860000030AF000030AE000030AD00C72C0130CA
:10087000AD35AE0DAF0DB00D890B382CC01F412C1E
:10088000422C432C2D14401C462C472C4A2C03147C
:10089000C00D4C2C0310C00D3F080319502C512CD7
:1008A000532C0130BF02AF1F562C572C372CBE01E2
:1008B000C01F5B2C5C2C6A2C40087F390319612C0B
:1008C000622C652CBE01BE0A6A2C2D1C682C692C7A
:1008D0006A2C622C3E0803196E2C6F2C9C2C013064
:1008E000AD070030AE3D0030AF3D0030B03D301CB4
:1008F0007A2C7B2C9C2C2D08B5002E08B6002F08D6
:10090000B7003008B8000130B900B837B70CB60CE2
:10091000B50CB90B852C3808B0003708AF00360885
:10092000AE003508AD003F0A0319972C982C9C2C7B
:100930000130B5003508BF073F0A0319A02CA12CD0
:10094000A62C3F08031DA52CA62CB42C0030B0000B
:100950000030AF000030AE000030AD003F08031D96
:10096000B22CB32CB42CBD013F1CB72CB82CBA2C24
:10097000AF17BE2C7F30B5003508AF053F36B50048
:100980003508B000BD1FC52CC62CC72CB0170800F9
:10099000400167088039E80068084101A40040016F
:1009A0006735E80068084101AB004001E61FD92C1B
:1009B000DA2CDC2C41012B1441012B080319E12C0A
:1009C000E22CF42C2B0A031DE62CE72CF02C003033
:1009D0004001E7000030E6000030E5000030E400B0
:1009E0004001E617E701FD2C00304001E700003030
:1009F000E6000030E5000030E40063088039E800DC
:100A000068084101A40640016335E8006808410117
:100A1000AC004001E21F0D2D0E2D102D41012C14B4
:100A200041012C080319152D162D282D2C0A031D04
:100A30001A2D1B2D242D00304001E3000030E20070
:100A40000030E1000030E0004001E217E301312D09
:100A500000304001E3000030E2000030E1000030EF
:100A6000E0006308620461046004031D382D392D21
:100A7000542D0030E7000030E6000030E500003083
:100A8000E4008030E6047F30E7044101240840019F
:100A9000E8006808E7046708E3006608E200650804
:100AA000E1006408E000D72E41012B08031D592DF9
:100AB0005A2D642D00304001E3000030E200003088
:100AC000E1000030E000D72E2B084001E800E901EA
:100AD0006908EB0041012C0840016802EA00031C90
:100AE000EB036A087F3E4101A500003040016B3DE9
:100AF0004101A600400167084101A30040016608CA
:100B00004101A200400165084101A10040016408C3
:100B10004101A00000304001E7000030E600003055
:100B2000E5000030E40000304101AA000030A900D7
:100B30000030A8000030A700AC01F22D2C080319EA
:100B4000A22DA32DC12D0130A035A10DA20DA30D05
:100B5000890BA42D01304001E435E50DE60DE70DCC
:100B6000890BAB2D4101AA1FB62DB72DB92D400120
:100B7000641401304101A735A80DA90DAA0D890BF8
:100B8000BA2D4001630841012302031DD72D400106
:100B9000620841012202031DD72D40016108410175
:100BA0002102031DD72D4001600841012002031CD2
:100BB000DA2DDB2DEC2D2A17400160084101A0023F
:100BC000400161084101A13B400162084101A23B93
:100BD000400163084101A33B01304001E80068087F
:100BE0004101AC071A302C02031CF72DF82D9E2D65
:100BF00023082204210420040319FF2D002E1C2E9B
:100C000027141C2E0130E435E50DE60DE70D890BA8
:100C1000032E4101AA1F0D2E0E2E102E400164142A
:100C200001304101A735A80DA90DAA0D890B112E80
:100C3000FF30A507FF30A63D4001E61F202E212EE4
:100C4000022E4101AC01AA1F262E272E4B2EFF306B
:100C500027054001E800FF30410128054001E90077
:100C6000FF30410129054001EA007F3041012A059A
:100C70004001EB006B086A04690468040319412E03
:100C8000422E462E4101AC01AC0A4B2E641C492E6B
:100C90004A2E4B2E422E41012C080319502E512E64
:100CA0007B2E01304001E4070030E53D0030E63D99
:100CB0000030E73D671C5D2E5E2E7B2E6408E80049
:100CC0006508E9006608EA006708EB000130EC00FF
:100CD000EB37EA0CE90CE80CEC0B682E6B08E7002C
:100CE0006A08E6006908E5006808E400013041018F
:100CF000A5070030A63D41012608803A4001E800E2
:100D000080306802031D872EFF3041012502031C3D
:100D10008A2E8B2E992EFF304101A5000030A600AF
:100D200000304001E7000030E6000030E500003010
:100D3000E40041012608803A4001E8008030680262
:100D4000031DA52E0130410125020318A82EA92E4E
:100D5000B72E4101A501A60100304001E700003097
:100D6000E6000030E5000030E4004101A40141014B
:100D700025084001E80068084101AB002B1CC12E8A
:100D8000C22EC52E4001E617CA2E7F304001E80072
:100D90006808E60541012B364001E8006808E700D5
:100DA000410124084001E8006808E7044B2D0800D1
:100DB0004001E5004E0886008701403FD000413FDA
:100DC000D10050088400510885001200253A031D07
:100DD000EA2EEB2ED52F4E088600870101308107C1
:100DE00041310318810A4201AE01AF014101EC011A
:100DF000ED01FF30EA00FF30EB0040014E088600B5
:100E00008701403FD000413FD10050088400510885
:100E100085001200643A03190E2F0F2F202F4E0861
:100E200086008701403FD000413FD1005008840038
:100E3000510885001200693A031D1F2F202F5B2FD8
:100E40004E08860087010130810741310318810A6D
:100E50004F08860087010108840085010230810760
:100E6000003FD000013FD1005008D5005108D60006
:100E7000890D893B8909D700D800D900DA00DB0049
:100E8000DC005508B0005608B1005708B2005808F9
:100E9000B3005908B4005A08B5005B08B6005C08F6
:100EA000B70065088C31A124863140013108CF009C
:100EB0003008CE00F82F4E0886008701403FD00052
:100EC000413FD10050088400510885001200753A56
:100ED000031D6B2F6C2FA02F4E0886008701013059
:100EE000810741310318810A4F08860087010108F4
:100EF0008400850102308107003FDD00013FDE00F4
:100F0000DF01E001E101E201E301E4015D08B0007D
:100F10005E08B1005F08B2006008B3006108B40069
:100F20006208B5006308B6006408B7006508883138
:100F30004620863140013108CF003008CE00F82F1E
:100F40004E0886008701403FD000413FD100500845
:100F50008400510885001200253A031DB02FB12FDF
:100F6000CA2F4E08860087010130810741310318DE
:100F7000810A2530F2000030F3006508D0005008E7
:100F8000F40088310720863101304001CE00003066
:100F9000CF00F82F4E0886008701013081074131CC
:100FA0000318810ACE01CF01F82F4E088600870171
:100FB000403FD000413FD1005008840051088500D7
:100FC0000008D200D3015208F2005308F30065086C
:100FD000D4005408F40088310720863140014E08BF
:100FE000860087010130810741310318810AC42F2F
:100FF0000800640080010131890BFA2F00340800D9
:10100200F10071089F318E27883108007408031996
:101012000B280C2811287408031D102811281628E3
:10102200720888310120883145287408033E860001
:1010320087011600010403191F2820283D2874087F
:10104200033E86008701403FF500413FF600740AE7
:1010520086008701403FF700413FF8007808803A58
:10106200F9007608803A7902031D3928750877025B
:1010720003183C283D284528740A86008701013060
:10108200810741310318810A08004001B90041017A
:10109200EB1B4C284D285128FD30EC05FF30ED05A7
:1010A2006B08803A4001B80080303802031D5C288A
:1010B200013041016A0203185F2860286628013066
:1010C2004001BA000030BB006E2841016B084001AC
:1010D200BB0041016A084001BA0042012F084001E9
:1010E200BD0042012E084001BC003008BE0031089C
:1010F200BF003208C0003308C1003408C2003508FE
:10110200C3003608C4003708C5001F30C6000030CF
:10111200C7004301BF01EE28FF304001C607FF3080
:10112200C73D0A30A000A101A201A301A401A501AB
:10113200A601A7013E08A8003F08A9004008AA008E
:101142004108AB004208AC004308AD004408AE00C1
:101152004508AF009331B323883140012008303E67
:10116200B8004608A03E860001308700380881009A
:10117200FF30BA07FF30BB3DFF30BC07FF30BD3D3B
:101182000A30A000A101A201A301A401A501A601A8
:10119200A7013E08A8003F08A9004008AA0041088C
:1011A200AB004208AC004308AD004408AE0045085D
:1011B200AF0094319924883140012008BE002108F3
:1011C200BF002208C0002308C1002408C20025086D
:1011D200C3002608C4002708C5004001460847048A
:1011E2000319F428F52821293E083F04400441044C
:1011F2004204430444044504031D002901298D28A7
:101202003B08803AB80080303802031D0A290130B9
:101212003A0203180D290E298D2840013D08803A13
:10122200B80080303802031D182901303C02031C2B
:101232001B291C2921294101EC18202921298D284B
:1012420040014608A03EB8003808A4003D08A600A8
:101252003C08A50039089231262288314001250830
:10126200B1002408B0000800F201203086000030EE
:101272008700473FF000F01F3F29402961294001C4
:10128200A009A109A209A309A409A509A609A709F8
:10129200A00A031D5F29A10A031D5F29A20A031DDB
:1012A2005F29A30A031D5F29A40A031D5F29A50A5A
:1012B200031D5F29A60A031D5F29A70AF201F20A8C
:1012C2002830860000308700473FF000F01F6A296F
:1012D2006B298E294001A809A909AA09AB09AC0901
:1012E200AD09AE09AF09A80A031D8A29A90A031D7F
:1012F2008A29AA0A031D8A29AB0A031D8A29AC0A74
:10130200031D8A29AD0A031D8A29AE0A031D8A29F3
:10131200AF0A0130F0007008F20673308600003028
:1013220087000830F00000301E00F00B95294001C4
:10133200200821042204230424042504260427046B
:101342000319A429A529012AF101F10AB429A0351A
:10135200A10DA20DA30DA40DA50DA60DA70D013083
:10136200F0007008F107A71FB729B829A829F3359B
:10137200F40DF50DF60DF70DF80DF90DFA0D270820
:101382002F02031DDE2926082E02031DDE29250851
:101392002D02031DDE2924082C02031DDE29230849
:1013A2002B02031DDE2922082A02031DDE29210841
:1013B2002902031DDE2920082802031CE129E22953
:1013C200F3292008A8022108A93B2208AA3B2308E6
:1013D200AB3B2408AC3B2508AD3B2608AE3B2708B7
:1013E200AF3B7314A736A60CA50CA40CA30CA20C3D
:1013F200A10CA00C0130F102031D002A012AB82918
:1014020072080319052A062A242AF309F409F509A0
:10141200F609F709F809F909FA09F30A031D242A5A
:10142200F40A031D242AF50A031D242AF60A031DC1
:10143200242AF70A031D242AF80A031D242AF90A7A
:10144200031D242AFA0A73084001A0007408A100AF
:101452007508A2007608A3007708A4007808A50002
:101462007908A6007A08A70008009F3184278A31EC
:1014720073084101BE007208BD007108BC0070080B
:10148200BB004201200841013B02AD00420121089C
:1014920041013C3BAE004201220841013D3BAF000D
:1014A2004201230841013E3BB00030082F042E04C4
:1014B2002D0403195D2A5E2A432BBF010C30AD00B7
:1014C2002D08F9003F089F31D6278A31373E860022
:1014D20001308700403F4101AE00413FAF00423F33
:1014E200B000433FB1009F3184278A317008410127
:1014F200B2007108B3007208B4007308B5002E0878
:10150200B2022F08B33B3008B43B3108B53B0C3074
:10151200B6003608F9003F089F31D6278A31333E9C
:10152200860001308700403F4101B700413FB800CB
:10153200423FB900433FBA0035083A02031DAB2AC5
:1015420034083902031DAB2A33083802031DAB2AC3
:10155200320837020318AE2AAF2A2C2B3F08AD00FF
:10156200AE012D084201EA0041012E084201EB00C2
:101572000C304101AD002D08F9003F089F31D627FC
:101582008A313B3E860001308700160001040319B0
:10159200CB2ACC2A0F2B0C304101AD002D08F900CB
:1015A2003F089F31D6278A313B3E860001308700B3
:1015B200413F8A00403F0A008A3173304101A00056
:1015C2009830A1000C30AD002D08F9003F089F3182
:1015D200D6278A31313E8600013087000108410159
:1015E200AE00AF012E08A2002F08A3000C30B000FD
:1015F2003008F9003F089F31D6278A31333E8600F2
:1016020001308700403F4101A400413FA500423F15
:10161200A600433FA70090310E208A31FF304201DD
:10162200EA00FF30EB000C304101AD002D08F9005B
:101632003F089F31D6278A31373E86000130870026
:101642009F3184278A317008C03F7108C13F7208F8
:10165200C23F7308C33F01304101AD002D08BF07EF
:1016620003303F02031C362B372B5F2A9F3184271E
:101672008A3173084201A3007208A2007108A10016
:101682007008A00008009F31B2278B317A30F00039
:101692001F30F1009F316C278B318B170B1795315F
:1016A2001D258B317A08FC007908FB009F31EB275E
:1016B2008B31903100208B314301C5014508420135
:1016C200E3000C30E4006408F900430145089F314F
:1016D200D6278B31313E86000130870042016308F4
:1016E20081003F304101CD008030CC000030CB0082
:1016F2000030CA004030D1004030D0000030CF006E
:101702000030CE00933145238B3141014A0842011A
:10171200E30063084301C4003F304101CD00803043
:10172200CC000030CB000030CA004430D1007A3007
:10173200D0000030CF000030CE00933145238B31F2
:1017420041014A084301C00041014B084301C10065
:10175200890D893B8909C200C30043084001A300E7
:10176200430142084001A200430141084001A10097
:10177200430140084001A000A030A4001130A500A0
:10178200430144089231DE228B313D304101A000F9
:101792009830A1000C304201E3006308F9004301D4
:1017A20045089F31D6278B31323E860001308700B3
:1017B20001084201E400E50164084101A20042017E
:1017C20065084101A3000C304201E6006608F900F9
:1017D200430145089F31D6278B31313E86000130C7
:1017E200870001084201E700E80167084101A400FF
:1017F200420168084101A5000C304201E900690874
:10180200F900430145089F31D6278B31333E8600CC
:1018120001308700403F4101A600413FA700423FFF
:10182200A800433FA90090310E208B3101304201C4
:10183200E30063084301C50703304502031C222C61
:10184200232C5F2B00304101A0009830A100903181
:101852000E208B3103304001A8000030A9000C306B
:10186200AA000030AB005830AC001030AD0031306F
:101872008E3111268B314301C5013D304101A0005B
:101882009830A1000C304201E3006308F9004301E3
:1018920045089F31D6278B31323E860001308700C2
:1018A20001084201E400E50164084101A20042018D
:1018B20065084101A3000C304201E6006608F90008
:1018C200430145089F31D6278B31313E86000130D6
:1018D200870001084201E700E80167084101A4000E
:1018E200420168084101A5000C304201E900690883
:1018F200F900430145089F31D6278B31333E8600DC
:1019020001308700403F4101A600413FA700423F0E
:10191200A800433FA90090310E208B3101304201D3
:10192200E30063084301C50703304502031C9A2CF8
:101932009B2C3E2C8A3136228B319B2C80311428F1
:101942004001BD003008C4003108C5003208C6009D
:101952003308C7003408C8003508C9003608CA0071
:101962003708CB004430860000308700473FB8007C
:10197200B81BBC2CBE2C0130BF2C00304001B9007A
:10198200BA013908C2003A08C300420843040319E5
:10199200CB2CCC2CEA2CC409C509C609C709C80935
:1019A200C909CA09CB09C40A031DEA2CC50A031DC9
:1019B200EA2CC60A031DEA2CC70A031DEA2CC80A30
:1019C200031DEA2CC90A031DEA2CCA0A031DEA2CCC
:1019D200CB0A4101EB1BEE2CEF2CF32CFD30EC0576
:1019E200FF30ED056B08803A4001B80080303802C4
:1019F200031DFE2C013041016A020318012D022D44
:101A0200082D01304001BE000030BF00102D410101
:101A12006B084001BF0041016A084001BE0042015B
:101A22002F084001C10042012E084001C0004208B7
:101A32004304031D1D2D1E2D232D41016C1D222D3E
:101A4200232D282DFF304001C007FF30C13D1F303C
:101A52004001CC000030CD004301BF01992DFF3081
:101A62004001CC07FF30CD3D0A30A000A101A20108
:101A7200A301A401A501A601A7014408A8004508E5
:101A8200A9004608AA004708AB004808AC0049086C
:101A9200AD004A08AE004B08AF00973116278C31D3
:101AA20040012108F4002008F300903124208C31F9
:101AB2007308303E4001B8004C08A03E8600013059
:101AC200870038088100FF30BE07FF30BF3DFF307E
:101AD200C007FF30C13D0A30A000A101A201A3014D
:101AE200A401A501A601A7014408A8004508A90070
:101AF2004608AA004708AB004808AC004908AD00F8
:101B02004A08AE004B08AF00893135218C314001C3
:101B12002008C4002108C5002208C6002308C70007
:101B22002408C8002508C9002608CA002708CB00D7
:101B320040014D08803AB80080303802031DA32DC1
:101B420001304C02031CA62DA72DD42D40014408C0
:101B5200450446044704480449044A044B04031D4F
:101B6200B32DB42D302D3F08803AB80080303802B2
:101B7200031DBD2D01303E020318C02DC12D302D95
:101B820040014108803AB80080303802031DCB2D55
:101B920001304002031CCE2DCF2DD42D4101EC1873
:101BA200D32DD42D302D400142084304031DDA2DDC
:101BB200DB2DE02D41016C1DDF2DE02DFD2DFF30D1
:101BC2004001CC07FF30CD3D42084304031DEA2DFE
:101BD200EB2DF02D2B30BB000030BC00F42D2D304E
:101BE200BB000030BC003B08B8004C08A03E860099
:101BF200013087003808810040014C08A03EB8003F
:101C02003808A4004108A6004008A5003D0892310A
:101C120026228C3140012508B1002408B0000800BA
:101C22004001EF006F08AE002E084101E1000030D4
:101C320040012B023C3003192A020318212E222EC6
:101C4200FF2F3330AE002E084101E00040012A0888
:101C5200410160074001AE002E0886008701810124
:101C62004101E601E701A001A10140012808FF3E70
:101C72004101A200FF304001293D4101A300660855
:101C82004001AE000130AE35FF3E031D442E2E351D
:101C9200A03E86008701403F4101E200413FE30050
:101CA20066084001AE000130AE35FF3E031D552EE1
:101CB2002E35023EA03E86008701403F4101E400EE
:101CC200413FE500FF30E607FF30E73D4101630891
:101CD200E9006208E80065084201E2004101640887
:101CE2004201E10040012A08AE002E08F90042013B
:101CF200610841016807F200420162084101693D41
:101D0200F3000230F0000030F10092317F228E3178
:101D120070089F31D6278E31410161074001AF0023
:101D22002F08A0002B08A2002A08A1004101600888
:101D320091310D218E31A22E01304101E807003090
:101D4200E93D40012A08AE002E08F9004101680869
:101D52009F31D6278E31410161074001A000013039
:101D6200A100410160084001A2000030A3002D083B
:101D72008A002C080A008E314001A11BC12EC22EFE
:101D82009D2EC82EFF304201E107FF30E23D4101A6
:101D920060084001A0000030A1002A08AE002E0811
:101DA200F900420161089F31D6278E314101610756
:101DB2004001A2000130A3002D088A002C080A006D
:101DC2008E314001A11BE62EE72EC32E420162088E
:101DD200803A4001AE0041016908803A40012E027A
:101DE200031DF72E4101680842016102031CFA2E0D
:101DF200FB2E2B2F40012B08A1002A08A0002A0845
:101E0200AE002E08F900410168089F31D6278E31B5
:101E1200410161074001AF002F08A2002A08B0006B
:101E22003008F900420161089F31D6278E31410105
:101E320061074001B1003108A30091316D218E315B
:101E420001304101E8070030E93DFF304201E1077E
:101E5200FF30E23D42016208803A4001AE0041019A
:101E62006908803A40012E02031D3B2F4101680898
:101E72004201610203183E2F3F2FA22E4101680842
:101E820064024001AE0041016908653B4001AF00B8
:101E920041016208420161024001B0004101630850
:101EA2004201623B4001B1003108803AB2002F0882
:101EB200803A3202031D5F2F2E0830020318622F70
:101EC200632FA72F41016908803A4001AE0041010A
:101ED2006508803A40012E02031D722F41016408F9
:101EE20068020318752F762F9E2F01304101E607F5
:101EF2000030E73D66084001AE000130AE35FF3EDE
:101F0200031D7F2F2E35A03E860087014101680800
:101F1200C03F6908C13F66084001AE000130AE35DE
:101F2200FF3E031D902F2E35023EA03E8600870104
:101F320041016408C03F6508C13F42016208410196
:101F4200E500420161084101E400E82F4101630814
:101F5200803A4001AE0042016208803A40012E02FE
:101F6200031DB72F42016108410162020318BA2F13
:101F7200BB2FE32F01304101E6070030E73D660841
:101F82004001AE000130AE35FF3E031DC42F2E3599
:101F9200A03E8600870141016208C03F6308C13F3D
:101FA20066084001AE000130AE35FF3E031DD52F5D
:101FB2002E35023EA03E8600870142016108C03FE5
:101FC2006208C13F41016908E3006808E200630852
:101FD200803A4001AE0041016508803A40012E027C
:101FE200031DF62F410164086202031CF92FFA2F28
:101FF200672E4101E71FFE2FFF2F402E08004101EF
:10200200EE010030F000F1002430F2000030F30065
:1020120031309531BC2590310800A2304001EE00EC
:102022006E084101AC0021084001E700410120088F
:102032004001E600AC30EE006E08E800003091315D
:102042003C21903108007408803AF5008030750216
:10205200031D2D28013073020318302831283D2832
:102062007309F5007409F600F50A0319F60A7508F2
:10207200F3007608F4003D280800F4007408F2002A
:102082007208F30048280130F2007208F40774085D
:102092008600013087000108031D5028512844287A
:1020A20073087402F000F101F01BF1030800400113
:1020B2002108A5002008A4002308A7002208A600E2
:1020C2002408860025088700413126088400270855
:1020D2008500013100080102A000A101031CA10337
:1020E2000800083042019F0090309D0024309E007D
:1020F20019309B009C010030F0000030F1009F314C
:10210200602790310030F0000030F1009F316627E7
:1021120090310030F0000030F1009F315A279031A9
:102122004201B0010800F800F401F5017008F20064
:10213200F3017208F6007308F700781CA128A228A0
:10214200A6287608F4077708F53D0130F635F70D35
:10215200890BA7280310F80C7808031DB128B228B0
:102162009E287508F1007408F00008004001A300E1
:10217200A101A201CF282008FB00FC017B08F2008C
:102182007C08F3007A08FD007D08F40088310720FE
:10219200903101304001A1070030A23D2108230700
:1021A200FB007B088600013087000108FC007C08E8
:1021B200A0002008031DDE28DF28BC2808004001FB
:1021C200980199019A01DF309200FF30930091301B
:1021D20094005C307E01CE00FF30C300DF30B800D7
:1021E200E501C401B901CF01BA01C501D001DF3057
:1021F200BB00FF30C600DF30D100FF30BC00FF3033
:10220200C700DF30D2000830E80017307D01CB0074
:102212000D307E01A60008004001A4002008FD0048
:102222007D08A6002408FD007D08A5002F292608A8
:102232008600013087000108FD007D08A3000130FF
:10224200FD007D08A6072308FD00250886008701FA
:102252007D0881000130FD007D08A5070130A10243
:102262000030A23B210A031D3A29220A031D3A2902
:102272003B29182908004001EB006708ED006608B9
:10228200EC004201AC01AD015A296C30E900690849
:10229200CE006808EA006A08CF006B088631D826AB
:1022A200913140014E084201AC0740014F08420102
:1022B200AD3D40016C0884006D0885001200031DCD
:1022C20063296429462942012D084001E7004201A1
:1022D2002C084001E60008009229220886000130FD
:1022E20087000108FD007D08A40023088600013054
:1022F20087000108FD0022088600013087007D0862
:1023020081000130FD007D08A2072408FD0023089A
:102312008600013087007D0881000130FD007D08C4
:10232200A30701304001A0020030A13B200A031D97
:102332009E29210A031D9E299F296E290800C8296A
:10234200031040019A1D03140318A829AB29400168
:102352009A15AD2940019A11D929031040011A1D7D
:1023620003140318B529B82940011A15BA294001E6
:102372001A11D929031040019A1C03140318C22907
:10238200C52940019A14C72940019A10D92942014E
:102392006B08003A0319CE29D9296A08003A0319B1
:1023A200A129013A0319AE29033A0319BB29D929F4
:1023B200080071308600003087000830F0000030DD
:1023C2001E00F00BE1294001201CE829E929F92926
:1023D2002808F1072908F23D2A08F33D2B08F43DAD
:1023E2002C08F53D2D08F63D2E08F73D2F08F83D47
:1023F200A835A90DAA0DAB0DAC0DAD0DAE0DAF0DEF
:10240200A736A60CA50CA40CA30CA20CA10CA00C24
:10241200200821042204230424042504260427047A
:10242200031D142A152AE4297108A0007208A100CC
:102432007308A2007408A3007508A4007608A5001A
:102442007708A6007808A70008004001AC00410107
:102452006C1C2C2A2D2A362A40012C08A70027089A
:10246200FA0024089031B72092314001A61B3A2A83
:102472003B2A402A2608AB002508AA00422AAA01C4
:10248200AB01A801A901562A2030F2000030F30066
:1024920040012C08A7002708F40088310720923158
:1024A20001304001A8070030A93D2908803AA70061
:1024B2002B08803A2702031D602A2A082802031CDF
:1024C200632A642A452A41016C18682A692A722AF9
:1024D20040012C08A7002708FA0024089031B720F1
:1024E20092314001240890313E20923140012A0865
:1024F2007007A4002B08713DA5000800F601F11F2A
:10250200832A842A8B2AF009F109F00A0319F10AB5
:10251200F601F60AF31F8E2A8F2A982AF209F30986
:10252200F20A0319F30A0130F4007408F606F701FF
:10253200F8017008710403199F2AA02ACF2AF50115
:10254200F50AAC2A0130F035F10D890BA42A0130CD
:10255200F4007408F507F11FAF2AB02AA32A01304C
:10256200F735F80D890BB12A71087302031DBB2AD6
:1025720070087202031CBE2ABF2AC42A7008F20223
:102582007108F33B77140130F136F00C890BC52A40
:102592000130F502031DCE2ACF2AB02A760803198C
:1025A200D32AD42AD92AF709F809F70A0319F80A0B
:1025B2007808F1007708F0000800FD0003304101BF
:1025C2006E020318E52AE62A442B7D084001A60084
:1025D2000C30A7002708F90041016E089F31D62769
:1025E2009231323E86000130870040012608810088
:1025F2000C30A6002608F90041016E089F31D6274B
:102602009231333E86000130870040012008C03FEE
:102612002108C13F2208C23F2308C33F0C30A60055
:102622002608F90041016E089F31D62792313B3EC0
:1026320086000130870040012408C03F2508C13FC1
:1026420041016E084001A6000C30A7002708F900DE
:1026520041016E089F31D6279231313E860001300A
:1026620087004001260881000130A60026084101AA
:10267200EE070C304001A6002608F90041016E0861
:102682009F31D6279231080095311D259331790863
:102692004001B8007A08B900890D893B8909BA005E
:1026A200BB00013096316926933140013B08CD00D1
:1026B2003A08CC003908CB003808CA004101510859
:1026C2004001C900410150084001C80041014F08C2
:1026D2004001C70041014E084001C6008031392047
:1026E200933140014908E7004808E6004708E50041
:1026F2004608E4004630E300FF30E200FE30E1002D
:102702000030E0008431C824933140016308410164
:10271200B400400162084101B30040016108410177
:10272200B200400160084101B1004D08B0004C0800
:10273200AF004B08AE004A08AD00823190229331BF
:1027420041013008C4002F08C3002E08C2002D0822
:10275200C10094312424933141014208CB00410845
:10276200CA00080040012008210422042304240492
:102772002504260427040319BF2BC02B132CF101B7
:10278200F10ACF2BA035A10DA20DA30DA40DA50D0D
:10279200A60DA70D0130F0007008F107A71FD22B7C
:1027A200D32BC32B27082F02031DF12B26082E0241
:1027B200031DF12B25082D02031DF12B24082C02E9
:1027C200031DF12B23082B02031DF12B22082A02E1
:1027D200031DF12B21082902031DF12B20082802D9
:1027E200031CF42BF52B052C2008A8022108A93B79
:1027F2002208AA3B2308AB3B2408AC3B2508AD3B8F
:102802002608AE3B2708AF3BA736A60CA50CA40CA6
:10281200A30CA20CA10CA00C0130F102031D122C7E
:10282200132CD32B2808A0002908A1002A08A200F3
:102832002B08A3002C08A4002D08A5002E08A60032
:102842002F08A700080003104101430D440DC500E5
:102852004508FC007C08031D2F2C302C392C00303D
:10286200C4000030C3000030C2000030C100982C08
:102872004108C5004208C6004308C7004408C80012
:102882001F30C836C70CC60CC50C890B422C450834
:10289200C9004908FB00C317FF30C105FF30C2055C
:1028A200FF30C3050030C4059630FC02FC1F5A2CD1
:1028B2005B2C732C7C08803A973E0318612C622CA7
:1028C200632C302C0130C436C30CC20CC10C890BF2
:1028D200642C0130C5004508FC07031D712C722CC5
:1028E200632C882C20307C02031C782C792C832CBE
:1028F200302C0130C135C20DC30DC40D890B7B2CA8
:102902000130FC027C08031D872C882C7A2C7B0862
:1029120003198C2C8D2C982CC109C209C309C40936
:10292200C10A0319C20A0319C30A0319C40A080017
:1029320071308600003087000830F00000301E0041
:10294200F00BA02C400120082104220423042404BB
:102952002504260427040319AF2CB02C0C2DF901F1
:10296200F90ABF2CA035A10DA20DA30DA40DA50D32
:10297200A60DA70D0130F0007008F907A71FC22CA1
:10298200C32CB32CF135F20DF30DF40DF50DF60D4C
:10299200F70DF80D27082F02031DE92C26082E0239
:1029A200031DE92C25082D02031DE92C24082C0205
:1029B200031DE92C23082B02031DE92C22082A02FD
:1029C200031DE92C21082902031DE92C20082802F5
:1029D200031CEC2CED2CFE2C2008A8022108A93B9C
:1029E2002208AA3B2308AB3B2408AC3B2508AD3B9D
:1029F2002608AE3B2708AF3B7114A736A60CA50CE0
:102A0200A40CA30CA20CA10CA00C0130F902031D12
:102A12000B2D0C2DC32C7108A0007208A1007308A5
:102A2200A2007408A3007508A4007608A500770820
:102A3200A6007808A700080001304001B00000306D
:102A4200B1000030B2000030B3000030B4000030FA
:102A5200B5000030B6000030B7004201590840010D
:102A6200A00042015A084001A10042015B08400156
:102A7200A20042015C084001A30042015D0840013E
:102A8200A40042015E084001A50042015F08400126
:102A9200A600420160084001A7005830AF00513043
:102AA200AE00F430AD002D30AC004C30AB009530B0
:102AB200AA007F30A9002D30A8009131DA2195318A
:102AC20040012030860000308700403FB007413F80
:102AD200B13D423FB23D433FB33D443FB43D453F2C
:102AE200B53D463FB63D473FB73D37084201E0009E
:102AF200400136084201DF00400135084201DE0094
:102B0200400134084201DD00400133084201DC008B
:102B1200400132084201DB00400131084201DA0083
:102B2200400130084201D900593086000130870047
:102B3200403F4001B000413FB100423FB200433F3D
:102B4200B300443FB400453FB500463FB600473F9F
:102B5200B70031304001B736B60CB50CB40CB30C2B
:102B6200B20CB10CB00C890BAB2D40013108FA004C
:102B72003008F9000800F6007608F4007408F9003D
:102B820072087304031DC62DC72DC82D682E700848
:102B9200F40079088600013087007408810070080B
:102BA200F40072087907F5007508FF3E86000130CF
:102BB2008700740881000030730203300319720227
:102BC2000318E42DE52DE62D682E7008F400790A2D
:102BD200860001308700740881007008F4007908CB
:102BE200023E860001308700740881007008F400FC
:102BF20072087907F5007508FE3E860001308700ED
:102C0200740881007008F40072087907F5007508ED
:102C1200FD3E860001308700740881000030730297
:102C22000730031972020318172E182E192E682E58
:102C32007008F4007908033E8600013087007408AA
:102C420081007008F40072087907F5007508FC3EEF
:102C52008600013087007408810000307302093059
:102C6200031972020318362E372E382E682E790970
:102C7200F4007A09F500F40A0319F50A0330740521
:102C8200F70000307505F8007708F4007408F907BA
:102C92007708F2027808F33BFC30F205FF30F305C7
:102CA200622E7008F40079088600013087007408EB
:102CB20081000130F2020030F33B0130F40074086D
:102CC200F90772087304031D672E682E522E08003E
:102CD2004001C000400803196F2E702E842EBB1FC6
:102CE200732E742E842E3809C2003909C3003A09A2
:102CF200C4003B09C500C20A0319C30A0319C40A66
:102D02000319C50A8C2E3B08C5003A08C4003908CD
:102D1200C3003808C2003B083A0439043804031DD2
:102D2200932E942E9D2E0030BB000030BA0000304E
:102D3200B9000030B800152F9630BC003C08C10025
:102D4200AD2E0130BC003C08C1070130C536C40CB1
:102D5200C30CC20C890BA72EFE304505031DB22EF3
:102D6200B32EA22EC72E0130BC003C08C107013091
:102D7200C2070030C33D0030C43D0030C53D0130C4
:102D8200C536C40CC30CC20C890BC12EFF304505DD
:102D9200031DCC2ECD2EB42ED72E0130C102013010
:102DA200C235C30DC40DC50D890BD12EC41BDA2E3D
:102DB200DB2EE12E023041020318E02EE12ECE2E50
:102DC2004118E42EE52EED2EFF30C205FF30C3057B
:102DD2007F30C405FF30C5050310C10C4108BC009B
:102DE200BD01BE01BF011830BC35BD0DBE0DBF0D0A
:102DF200890BF52E3C08C2043D08C3043E08C404F6
:102E02003F08C50440080319072F082F0D2FBB1FC9
:102E12000B2F0C2F0D2FC5174508BB004408BA0015
:102E22004308B9004208B8000800F20128308600C1
:102E320000308700473FF000F01F202F212F422F44
:102E42004001A809A909AA09AB09AC09AD09AE0953
:102E5200AF09A80A031D402FA90A031D402FAA0A81
:102E6200031D402FAB0A031D402FAC0A031D402F48
:102E7200AD0A031D402FAE0A031D402FAF0AF20117
:102E8200F20A2030860000308700473FF000F01F32
:102E92004B2F4C2F6B2F4001A009A109A209A309B6
:102EA200A409A509A609A709A00A031D6B2FA10A57
:102EB200031D6B2FA20A031D6B2FA30A031D6B2F89
:102EC200A40A031D6B2FA50A031D6B2FA60A031D5F
:102ED2006B2FA70A400120082104220423042404A2
:102EE2002504260427040319772F782FCB2FF1010D
:102EF200F10A872FA035A10DA20DA30DA40DA50DDA
:102F0200A60DA70D0130F0007008F107A71F8A2F48
:102F12008B2F7B2F27082F02031DA92F26082E0295
:102F2200031DA92F25082D02031DA92F24082C02F9
:102F3200031DA92F23082B02031DA92F22082A02F1
:102F4200031DA92F21082902031DA92F20082802E9
:102F5200031CAC2FAD2FBD2F2008A8022108A93BCE
:102F62002208AA3B2308AB3B2408AC3B2508AD3B17
:102F72002608AE3B2708AF3BA736A60CA50CA40C2F
:102F8200A30CA20CA10CA00C0130F102031DCA2F4C
:102F9200CB2F8B2F72080319CF2FD02FEE2FA8091A
:102FA200A909AA09AB09AC09AD09AE09AF09A80A7A
:102FB200031DEE2FA90A031DEE2FAA0A031DEE2FF1
:102FC200AB0A031DEE2FAC0A031DEE2FAD0A031D43
:102FD200EE2FAE0A031DEE2FAF0A40012808A00013
:102FE2002908A1002A08A2002B08A3002C08A4008B
:102FF2002D08A5002E08A6002F08A70008002034DF
:103002006134663474346534723420347334683411
:103012006F347234743469346E34673420347434E7
:10302200613473346B3420347034723469346F34E5
:1030320072346934743479342034203469346E340F
:10304200203441347334633465346E346434693407
:103052006E34673420346F347234643465347234BD
:103062002E342E342E342E342E342E342E342E344E
:1030720020340D340A34003420347434613473340F
:103082006B345F347034723469346F34723469343F
:103092007434793420343D3420342534643420347B
:1030A20061346E34643420346934643420343D3401
:1030B200203425346434203461346E346434203452
:1030C20069346E34743465347234763461346C34F9
:1030D20020343D3420342534753420340D342034EA
:1030E2000A340034633461346C346C3465346434CF
:1030F20020347434613473346B3465346434203472
:103102006934643420343D3420342534643420342A
:1031120061346E346434203469346E34743465340A
:103122007234763461346C3420343D3420342034AB
:0A313200253475340D340A340034DE
:103EB40071084301C7007008C60008007108420178
:103EC400D6007008D500080071084301C9007008C5
:103ED400C800080071084201D8007008D700080023
:103EE4004F0196019701980199019A019B010800DD
:103EF40001304201A8070030A93D0030AA3D00303E
:103F0400AB3D080042012B08F3002A08F2002908FF
:103F1400F1002808F0000800F0004E010F1E932F56
:103F2400942F8F2F700842019A00080062305101CB
:103F34008D008F0191010230930090019201940150
:103F440008004E018C124201570858040319AB2F84
:103F5400AC2FB12F58088A0057080A009F31080077
:103F64009F3172279F319031E0209F319F319827F4
:103F74009F319F31C2279F31903172209F310800B9
:103F840040304B019F00F9309D009C014E018C1282
:103F94009616FF30F0000730F1009F316C279F31F7
:103FA40080304B019E000800FC00FB017C1CDB2FD1
:103FB400DC2FE02F7908FA007A08FB070310F90DCB
:103FC4000310FC0C7C08031DE82FE92FD82F7B0875
:103FD40008007B08FF3E4001B800FF307C3DB9007B
:103FE40038084201D900400139084201DA00DB01F6
:0C3FF400DC01DD01DE01DF01E00108005E
:020000040001F9
:0A000E00E83FFF3F9F3FFF3FFF3F29
:00000001FF
