:020000040000FA
:04000000803114280F
:100008007E1480314E01161E0A280B2812280C1E59
:100018000E280F28122880317D2080317E1009009B
:10002800803116287E1040018031862840019801D1
:1000380099019A01DF309200FF309300D730940085
:10004800CC307E01CE00FF30C300DF30B800E501C0
:10005800C401B901CF01BA01C501D001DF30BB002D
:10006800FF30C600DF30D100FF30BC00FF30C700D2
:10007800DF30D2000830E8005512541653125B30B6
:10008800F2000030F3008031962080314E011616C0
:100098000800700871040319522853285828710859
:1000A8008A0070080A0080317E015512080003108A
:1000B80040019A1D031403186228652840019A1507
:1000C800672840019A110800623051018D008F01A4
:1000D800910102309300900192019401080080314F
:1000E8008E20803180311A20803180316820803123
:1000F80008007E01551E81288228852880314D20E0
:10010800803108008031732080318B170B178B28C2
:10011800803114284F0196019701980199019A019D
:0E0128009B0108007308F1007208F000080047
:020000040001F9
:0A000E00E83FFF3F9F3FFF3FFF3F29
:00000001FF
