:020000040000FA
:020000001428C2
:100008007E1480318B1A0B1D0F280B117D082000E0
:100018009500E52612288B1D12280B087E10090072
:100028001528A0308400003085002D30ED262030C2
:100038008400013085002830ED267E102000062C33
:10004800D326280870022000EA0021002908713B05
:100058002000EB0021002A08723B2000EC00210060
:100068002B08733B2000ED006D08031D45286C0824
:10007800031D45286B08031D452832306A02031CFE
:1000880008002100D501550B4A288E285508BC25A3
:10009800013A0A30F000031D832821005508C726BD
:1000A800213E8600013087000108C8000A30F000B0
:1000B8005508C726223E860001308700403F2000B1
:1000C800EA00413FEB00423FEC00433FED006C0487
:1000D8006B046A04031D8E280A30F00021005508BD
:1000E800C726223E860001308700D3267008C03F0D
:1000F8007108C13F7208C23F7308C33F8E282100B0
:100108005508C726223EBC210A30F0005508C726EC
:10011800263EBC2121000430D50A5502031C47287D
:100128002200D9210319C228DE210319C22821007F
:100138002708260425042404031DAB28D3267308A6
:10014800A7007208A6007108A5007008A400D326AD
:100158007308D0007208CF007108CE007008CD0077
:100168002408CD022508CE3B2608CF3B2708D03BE4
:10017800AA30C800CD30F00000301D29D92103195C
:10018800F028CC2121082100C800D326220022080B
:1001980070022000EA0022002308713B2000EB00D7
:1001A80022002408723B2000EC0022002508733B43
:1001B8002000ED002200A90020006C082200A80001
:1001C80020006B082200A70020006A082200A60071
:1001D8002630F00001301D29DE2103192329CC2106
:1001E8002B082100C800D32622002C08700220000A
:1001F800EA0022002D08713B2000EB0022002E08A7
:10020800723B2000EC0022002F08733B2000ED0019
:100218002200B30020006C082200B20020006B0806
:100228002200B10020006A082200B0003030F0003F
:100238000130D32119260530FB00C830ED212200FA
:10024800E32103195129E821031951292100230821
:10025800220421042004031D3A29D3267308A3008D
:100268007208A2007108A1007008A000D3267308C4
:10027800D4007208D3007108D2007008D100200899
:10028800D1022108D23B2208D33B2308D43BAB3010
:10029800C800D130F0000030AC29E32103197F29D0
:1002A800C52135082100C800D3262200360870026F
:1002B8002000EA0022003708713B2000EB002200F2
:1002C8003808723B2000EC0022003908733B2000FC
:1002D800ED002200BD0020006C082200BC002000B8
:1002E8006B082200BB0020006A082200BA003A30DE
:1002F800F0000130AC29E8210319B229C5213F08D3
:100308002100C800D3262200400870022000EA001D
:1003180022004108713B2000EB0022004208723B9A
:100328002000EC0022004308733B2000ED0022006F
:10033800C70020006C082200C60020006B082200BD
:10034800C50020006A082200C4004430F0000130D3
:10035800D32119260530FB00C830ED21D3267308B8
:10036800AB007208AA007108A9007008A80008006C
:100378008600013087000030C03FC13FC23FC33F05
:1003880008002100A001A101A201A3012200080088
:100398002100A401A501A601A70122000800F1007F
:1003A8000430F200C930F3010800250824042304AE
:1003B800220408002F082E042D042C0408003908F4
:1003C8003804370436040800430842044104400452
:1003D80008002000D7002230E0005530DF0044300C
:1003E800DE001130DD003830F0000030F100F03070
:1003F800F2001F30F301F400F5019D22B030E9014D
:10040800F0000030F1001030F2003830F301192606
:1004180010302000E9076908383E8600113087014E
:100428008100E90A222390225E088100E90A22233A
:1004380090225F088100E90A222390226008810047
:10044800E90A222390227B088100E90A5708F00074
:10045800F1017B08F200F3016908383E19267B0890
:100468002000E9071E30F00038308126D60022230C
:100478007908E1007A08E200890D893B8909E300DF
:10048800E40022237908E5007A08E600890D893B13
:100498008909E700E80022237908D9007A08DA00F8
:1004A800890D893B8909DB00DC00F030DD2620005E
:1004B8006108DD2620006208DD2620006308DD26AD
:1004C800FE30DD2620006508DD2620006608DD26D2
:1004D80020006708DD265A30DD2620005908DD2671
:1004E80020005A08DD2620006208630766076707B0
:1004F8005A07610765075907DD262000D801580803
:10050800383E8600870101086B2620001F30D80A74
:10051800580203180800832A7908FC006908383E45
:10052800860087017C088100E90A6908383E860050
:10053800080071082000A3007008A2007408750460
:10054800031908002208860023080223FF3E0D2312
:10055800033003197402031C08002208013E1A2301
:100568008700720881002208023E1A230223FE3EF9
:10057800F800FF30773DF9007808860079080223F3
:10058800FD3E0D23073003197402031C08002208DE
:10059800033E1A230223FC3E0D230930031974027B
:1005A800031C08002209F6002309F700F60A0319BC
:1005B800F70A7608A0007708A1000330A005A1017A
:1005C8002008A2072108A33D2008F4022108F53BD2
:1005D800FC30F405FF30F5057408750403190800AC
:1005E8002208860023088700720881000130F4027F
:1005F8000030F53BA20A0319A30AF02A8700720803
:10060800810074082207F6007508233DF700760874
:100618000800F800FF30773DF9007808860079086F
:10062800870072088100003075020800F60000306B
:10063800233DF70076088600770808002100400867
:100648002000A000210041082000A100210042084C
:100658002000A200210043082000A3002100440834
:100668002000A400210045082000A500210046081C
:100678002000A600210047082000A7005830AF003E
:100688005130AE00F430AD002D30AC004C30AB0032
:100698009530AA007F30A9002D30A800FD2420083D
:1006A8002100C000200021082100C10020002208EC
:1006B8002100C200200023082100C30020002408D4
:1006C8002100C400200025082100C50020002608BC
:1006D8002100C600200027082100C7000130C007FC
:1006E8000030C13DC23DC33DC43DC53DC63DC73DCB
:1006F800C030860000308700403F2000B000413FF6
:10070800B100423FB200433FB300443FB400453F0D
:10071800B500463FB600473FB70007302000B73660
:10072800B60CB50CB40CB30CB20CB10CB00C890BF4
:10073800922B20003108FA003008F9000800F20076
:10074800F2230124031D08007208023EF223023E30
:100758000124031D08007208043EF223043E01240C
:10076800031D08007208063EF223063E0124031DFD
:1007780008007208083EF223083E0124031D080001
:1007880072080A3EF2230A3E0124031D080072087B
:100798000C3EF2230C3E0124031D080072080E3E95
:1007A800F2230E3E0124031D080072088600003063
:1007B8008701C03FC13F7208023EFB23043EFB2372
:1007C800063EFB23083EFB230A3EFB230C3EFB238D
:1007D8000E3E86000030C03FC13F08008600013051
:1007E8008701810741310318810A720808008600D1
:1007F8000030C03FC13F720808008600870116001C
:10080800010408008625B030F0000030F1001030F7
:1008180074259D22B030B1240530F300B030F401C6
:10082800A626B0304425EF258B17BE3086000C3045
:100838008701B03E8400850134083207D6003508A8
:10084800333DD70036085607D8003708573DD9003A
:1008580038085807DA003908593DDB003A085A07C2
:10086800DC003B085B3DDD00003F5C07DE00013F2C
:100878005D3DDF00403F5E07E000413F5F3DE10036
:1008880030086007E2003108613DE300E401E5015A
:10089800D3267008E2077108E33D7208E43D730847
:1008A800E53D6308F1006208F0009526A801A9015A
:1008B800AA01AB0124205E2CFF30FA000730FB00B0
:1008C8000F30FA067308FA057408FB0500308B1B15
:1008D8000130F9007B087406031D742C7A0873062E
:1008E800031D08008B137408F1007308F0005326E9
:1008F800151315159516FC0173082300910074084B
:1009080092007C357507F600860087010108930080
:100918007C357507F6008600403FF700413FF80038
:1009280094000F307C060319951255309600AA30B2
:100938009600951400000000F30A0319F40A103019
:10094800FC0A7C02031C802C23001511790CAC2CAA
:10095800031C8B1303188B170800B4002430F00015
:100968000030F100103074259D22B5013508F000E3
:10097800E130F6243926EC24C03F7B08C13F3535E9
:10098800243E8600403FFA00413FFB007A08FB0006
:10099800FA013535243E86007A08C03F7B08C13FFE
:1009A8003508F000E030F6243926EC248104413182
:1009B8007B0881040830B50A3502031CBA2C2430A0
:1009C800F0000030F1001030F200F3013408192E65
:1009D8007008FA00FB0120003535243E86008701A7
:1009E8007A080800F101F035F10DF0070730F13D04
:1009F800080071308600003087000830F0000030B1
:100A08001E00F00B042D201C192D2808F1072908B9
:100A1800F23D2A08F33D2B08F43D2C08F53D2D083E
:100A2800F63D2E08F73D2F08F83DA835A90DAA0D6B
:100A3800AB0DAC0DAD0DAE0DAF0DA736A60CA50CCC
:100A4800A40CA30CA20CA10CA00C200821042204C5
:100A580023042404250426042704031D072D7108F4
:100A6800A0007208A1007308A2007408A30075080A
:100A7800A4007608A5007708A6007808A700080053
:100A88002000E900EA002930F0000030F100403091
:100A980074259D22EB016B356A07A4008600870147
:100AA800403FA500413FA6002508802579256B35E4
:100AB8006A07A4008600403FA500413FA600A500A4
:100AC800A6018025023E79250830EB0A6B02031C3B
:100AD8004F2DE030F3000730F4002930F500602C8A
:100AE800F201F301F400F5010800293E8600270809
:100AF800C03F2808C13F0800A700A8016B080907E4
:100B0800090708007A30210099009801220096010F
:100B180016302100970022008C012F3021008C0014
:100B280023008C0124008C012100951725008C01DD
:100B3800373026008C003F3027008C00843022009C
:100B48009D0021001508C039143895008330200015
:100B58009500FD000B118B16083023009F00803094
:100B68009D0024309E0040309B0003309C0008000C
:100B7800F200F301D72D003020000C190130F300EA
:100B8800ED2D003020008C1A0130F300ED2D0030DF
:100B980020008C180130F300ED2D003020000C18D7
:100BA8000130F300ED2D7208F000F1017108003AF0
:100BB8000319DF2DED2D7008003A0319BF2D013AF6
:100BC8000319C52D033A0319CB2D013A0319D12D69
:100BD800ED2D730808002030F000013012269D2208
:100BE8002A30F000013012269D223430F000013006
:100BF80012269D223E30F000013012269D22A1309F
:100C08002200A100A230AB00A330B500A430BF0081
:100C18002100A801A901AA01AB010800F1000A30CE
:100C2800F201F301F400F5010800F8007108F6007C
:100C38007008F5007808F7000130F2020030F33B45
:100C4800720F292E730A03190800750886007608A2
:100C580087000108F400F50A0319F60A77088600E8
:100C6800870174088100F70A202E00308B1B0130A1
:100C7800F2008B137008230091007108920015137D
:100C8800151400000000720C031C8B1303188B173B
:100C980023001408F100F0011308F00408000030E4
:100CA8008B1B0130F2008B13700823009100710830
:100CB800920015131516151555309600AA30960092
:100CC80095140000000023001511720CAC2CF100E3
:100CD8000A3AF400740E7826F20074087826F300B5
:100CE8007208DD267308DD2E0F39B73E8400863082
:100CF8000318013E850000080800F200F401F30122
:100D0800700873020318912E73087207F1008600A9
:100D180087010108F407F30A842EF409F40A740819
:100D280008007008FF3EF200FF30713DF3007208C2
:100D3800C0007308C100C201C301C401C501C601D6
:100D4800C7010800F700F501F60174087602031DD3
:100D5800AF2E73087502031808007708A323F50A55
:100D68000319F60AA92E2D342E343334353436348B
:100D780029342A343C3423342534263439343A345B
:100D880032343E343F34F200F10170087218F10732
:100D9800F035F2367208031DC92E710808002100CB
:100DA8002F08F3002E08F2002D08F1002C08F0009F
:100DB8000800F0002000111EDE2E700823009A00A3
:100DC800080001302100AC070030AD3DAE3DAF3D1D
:0E0DD8000800640080010131890BEE2E00340A
:100FC0000034003400340034003400340034003481
:100FD0000034003400340034003400340034003471
:100FE0000034003400340034003400340034003461
:100FF0000034003400340034003400340034003451
:020000040001F9
:04000E00E4FFFFFE0E
:00000001FF
