:020000040000FA
:08000000803102288731FD2F39
:100F1600F000700852018F000800A03052018E00C8
:100F260013308F0008004F0196019701980199012F
:100F36009A019B010800623051018D008F019101D9
:100F460002309300900192019401080087319627A0
:100F560087318731D627873187319E278731873179
:100F66009027873108008731A92787318731902755
:100F76008731F201720887318B278731A330F10060
:100F86005530890BC42FF10BC42F00000130F1003E
:100F96007108F2071F307202031CD22FD32FBD2F08
:100FA600BC2F803102284001980199019A01DB305B
:100FB6009200FF309300DF309400DC307E01CE00DB
:100FC600FF30C300DF30B800E501C401B901CF012D
:100FD600BA01C501D001DF30BB00FF30C600DF30EB
:100FE600D100FF30BC00FF30C700DF30D200083030
:0A0FF600E800080040018731B62F23
:020000040001F9
:0A000E00E83FFF3F9F3FFF3FFF3F29
:00000001FF
