:020000040000FA
:08000000803102288731FD2F39
:100E70004F0196019701980199019A019B01080081
:100E8000623051018D008F01910106309300900175
:100E90009201940108008C3046018E0001308D00D3
:100EA000F3308C0044011E08FC3901389E00080014
:100EB0000130450190008F0191017C308D008C0143
:100EC0004E019010C03045018E000800F3007308F9
:100ED00041019F0042019117111311141118712F34
:100EE000722F6E2F41011E08F1001D08F00008004E
:100EF000FF30F0050330F10546010E1E802F812FD3
:100F0000862F0630F035F10D890B822F71088D0088
:100F100070088C0008008731382787318731CF2748
:100F200087318731402787318731B3278731873130
:100F30004B278731873158278731080087318B2726
:100F4000873114308731662787317108F5007008C2
:100F5000F4007508F1007408F000873178278731B4
:100F6000A12F8031022841018C018D018E018F015A
:100F70009201930198019A019F01A03042018C00D7
:100F80000F308D008E018F01900192019301940129
:100F90009501960197019801943091000800400155
:100FA000980199019A01DF309200FF309300DE3002
:100FB00094001C307E01CE00FF30C300DF30B8004B
:100FC000E501C401B901CF01BA01C501D001DF308B
:100FD000BB00FF30C600DF30D100FF30BC00FF3067
:100FE000C700DF30D2000830E8000930A00016301A
:100FF0007D01C30017309C000800400187319E2FFF
:020000040001F9
:0A000E00E83FFF3F9F3FFF3FFF3F29
:00000001FF
