:020000040000FA
:08000000803102288731F52F41
:100CBA0071084001DC007008DB000800710840017F
:100CCA00E0007008DF00080071084001DE007008CB
:100CDA00DD000800F100710886318326863108009C
:100CEA00640080010131890B762E00344F01960190
:100CFA009701980199019A019B010800F0004E01A1
:100D0A000F1E882E892E842E700842019A00080030
:100D1A00623051018D008F019101023093009001E0
:100D2A0092019401080086317B26863187310F278C
:100D3A00863186318D2686318631C5268631080070
:100D4A0086319826863100304001D6008830D70097
:100D5A008631B3268631A82E803102285830FD000C
:100D6A007D084001DA005708CF005608CE005A30F5
:100D7A00FD007D08D00000308631E7268631080064
:100D8A00083042019F0090309D0024309E001930A7
:100D9A009B009C010030F0000030F1008631632690
:100DAA0086310030F0000030F10086316926863144
:100DBA000030F0000030F10086315D2686314001B6
:100DCA00C80108004001D3004F08D5004E08D400DE
:100DDA00C001C101012F5430D1005108FA00500856
:100DEA00D2005208FB00530887317B2786317A08E4
:100DFA004001C0077B08C13D54088400550885009E
:100E0A001200031D092F0A2FF02E4108CF004008B7
:100E1A00CE0008004001980199019A01DF30920042
:100E2A00FF3093009F3094005C307E01CE00FF308B
:100E3A00C300DF30B800E501C401B901CF01BA012E
:100E4A00C501D001DF30BB00FF30C600DF30D10062
:100E5A00FF30BC00FF30C700DF30D2000830E800A6
:100E6A0017307D01CB000D307E01A6000800740802
:100E7A000319402F412F462F7408031D452F462F73
:100E8A004B2F720886316F2687317A2F7408033EFA
:100E9A0086008701160001040319542F552F722F5B
:100EAA007408033E86008701403FF500413FF60083
:100EBA00740A86008701403FF700413FF80078082E
:100ECA00803AF9007608803A7902031D6E2F750878
:100EDA0077020318712F722F7A2F740A86008701FE
:100EEA000130810741310318810A0800FC007A08A1
:100EFA0086008701403F4001C900413FCA004908B6
:100F0A0084004A0885001200253A031D8D2F8E2F72
:100F1A00D22F7A08860087010130810741310318F0
:100F2A00810AC201C301C601C701FF30C400FF30F4
:100F3A00C5007A0886008701403FC900413FCA00C0
:100F4A00490884004A0885001200253A031DAE2F7D
:100F5A00AF2FC72F7A0886008701013081074131F8
:100F6A000318810A2530F2000030F3007C08C9001A
:100F7A004908F40087313C2787310130FA000030F4
:100F8A00FB00F42F7A08860087010130810741317E
:100F9A000318810AFA01FB01F42F7A0886008701F7
:100FAA00403FC900413FCA00490884004A088500F9
:100FBA000008CB00CC014B08F2004C08F3007C0877
:100FCA00CD004D08F40087313C2787317A08860026
:100FDA0087010130810741310318810AC22F0800B5
:100FEA00203084000030850029308631752687310B
:100FFA0040018631A52E4834413452345234593492
:08100A0020340D340A340034D7
:020000040001F9
:0A000E00E83FFF3F9F3FFF3FFF3F29
:00000001FF
