:020000040000FA
:08000000803102288731FD2F39
:100EC6000130450190008F0191017C308D008C012D
:100ED6004E019010C03045018E000800FF30F0052D
:100EE6000330F10546010E1E792F7A2F7F2F06302B
:100EF600F035F10D890B7B2F71088D0070088C0081
:100F06000800623051018D008F0191010630930077
:100F16009001920194018C3046018E0001308D00C3
:100F2600F3308C0044011E08FC3901389E0008008D
:100F3600DE3040019400DC307E01CE000930A00096
:100F4600873163278731873184278731F401740815
:100F5600F200F3017208F0007308F100873171277F
:100F660087311A30F200F830890BB72FF20BB72F02
:100F760000320130F2007208F407740A031DC42F10
:100F8600C52FAA2F1530F3004B30F200BE30890B67
:100F9600CA2FF20BCA2FF30BCA2F0032FF30F20012
:100FA6007208F4007408F200F3017208F000730886
:100FB600F1008731712787311A30F200F830890B3A
:100FC600E22FF20BE22F00320130F4027408031D07
:100FD600ED2FEE2FD52F1530F3004B30F200BE303B
:100FE600890BF32FF20BF32FF30BF32F0032A92FFC
:0A0FF60080310228400187319B2F53
:020000040001F9
:0A000E00E83FFF3F9F3FFF3FFF3F29
:00000001FF
